{
	"data": {
		"bytecode": {
			"linkReferences": {},
			"object": "60806040523480156200001157600080fd5b506040516200196938038062001969833981810160405281019062000037919062000349565b6040518060e001604052808581526020018481526020018381526020013373ffffffffffffffffffffffffffffffffffffffff1681526020016000600281111562000087576200008662000418565b5b81526020016000815260200182815250600080820151816000019081620000af919062000688565b506020820151816001019081620000c7919062000688565b506040820151816002019081620000df919062000688565b5060608201518160030160006101000a81548173ffffffffffffffffffffffffffffffffffffffff021916908373ffffffffffffffffffffffffffffffffffffffff16021790555060808201518160030160146101000a81548160ff0219169083600281111562000155576200015462000418565b5b021790555060a0820151816004015560c08201518160050155905050505050506200076f565b6000604051905090565b600080fd5b600080fd5b600080fd5b600080fd5b6000601f19601f8301169050919050565b7f4e487b7100000000000000000000000000000000000000000000000000000000600052604160045260246000fd5b620001e48262000199565b810181811067ffffffffffffffff82111715620002065762000205620001aa565b5b80604052505050565b60006200021b6200017b565b9050620002298282620001d9565b919050565b600067ffffffffffffffff8211156200024c576200024b620001aa565b5b620002578262000199565b9050602081019050919050565b60005b838110156200028457808201518184015260208101905062000267565b60008484015250505050565b6000620002a7620002a1846200022e565b6200020f565b905082815260208101848484011115620002c657620002c562000194565b5b620002d384828562000264565b509392505050565b600082601f830112620002f357620002f26200018f565b5b81516200030584826020860162000290565b91505092915050565b6000819050919050565b62000323816200030e565b81146200032f57600080fd5b50565b600081519050620003438162000318565b92915050565b6000806000806080858703121562000366576200036562000185565b5b600085015167ffffffffffffffff8111156200038757620003866200018a565b5b6200039587828801620002db565b945050602085015167ffffffffffffffff811115620003b957620003b86200018a565b5b620003c787828801620002db565b935050604085015167ffffffffffffffff811115620003eb57620003ea6200018a565b5b620003f987828801620002db565b92505060606200040c8782880162000332565b91505092959194509250565b7f4e487b7100000000000000000000000000000000000000000000000000000000600052602160045260246000fd5b600081519050919050565b7f4e487b7100000000000000000000000000000000000000000000000000000000600052602260045260246000fd5b600060028204905060018216806200049a57607f821691505b602082108103620004b057620004af62000452565b5b50919050565b60008190508160005260206000209050919050565b60006020601f8301049050919050565b600082821b905092915050565b6000600883026200051a7fffffffffffffffffffffffffffffffffffffffffffffffffffffffffffffffff82620004db565b620005268683620004db565b95508019841693508086168417925050509392505050565b6000819050919050565b600062000569620005636200055d846200030e565b6200053e565b6200030e565b9050919050565b6000819050919050565b620005858362000548565b6200059d620005948262000570565b848454620004e8565b825550505050565b600090565b620005b4620005a5565b620005c18184846200057a565b505050565b5b81811015620005e957620005dd600082620005aa565b600181019050620005c7565b5050565b601f82111562000638576200060281620004b6565b6200060d84620004cb565b810160208510156200061d578190505b620006356200062c85620004cb565b830182620005c6565b50505b505050565b600082821c905092915050565b60006200065d600019846008026200063d565b1980831691505092915050565b60006200067883836200064a565b9150826002028217905092915050565b620006938262000447565b67ffffffffffffffff811115620006af57620006ae620001aa565b5b620006bb825462000481565b620006c8828285620005ed565b600060209050601f831160018114620007005760008415620006eb578287015190505b620006f785826200066a565b86555062000767565b601f1984166200071086620004b6565b60005b828110156200073a5784890151825560018201915060208501945060208101905062000713565b868310156200075a578489015162000756601f8916826200064a565b8355505b6001600288020188555050505b505050505050565b6111ea806200077f6000396000f3fe60806040526004361061003f5760003560e01c80635699fadc14610044578063d63dc6611461006d578063d8b9182b14610077578063f60ca60d1461008e575b600080fd5b34801561005057600080fd5b5061006b600480360381019061006691906109f2565b6100bf565b005b61007561024a565b005b34801561008357600080fd5b5061008c610601565b005b34801561009a57600080fd5b506100a36107d3565b6040516100b69796959493929190610b80565b60405180910390f35b600060030160009054906101000a900473ffffffffffffffffffffffffffffffffffffffff1673ffffffffffffffffffffffffffffffffffffffff163373ffffffffffffffffffffffffffffffffffffffff1614610152576040517f08c379a000000000000000000000000000000000000000000000000000000000815260040161014990610c50565b60405180910390fd5b600060030160149054906101000a900460ff16600281111561017757610176610af0565b5b81600281111561018a57610189610af0565b5b1461020a5780600060030160146101000a81548160ff021916908360028111156101b7576101b6610af0565b5b02179055507f2be2dd4d0c09300b265ad4a42d8a17400098b52e1bf47769cdaa8b029d143ea4600060030160149054906101000a900460ff166040516101fd9190610c70565b60405180910390a1610247565b806040517ff3a08e8700000000000000000000000000000000000000000000000000000000815260040161023e9190610cfd565b60405180910390fd5b50565b600060030160009054906101000a900473ffffffffffffffffffffffffffffffffffffffff1673ffffffffffffffffffffffffffffffffffffffff163373ffffffffffffffffffffffffffffffffffffffff16036102dd576040517f08c379a00000000000000000000000000000000000000000000000000000000081526004016102d490610d77565b60405180910390fd5b60003411610320576040517f08c379a000000000000000000000000000000000000000000000000000000000815260040161031790610de3565b60405180910390fd5b6001600281111561033457610333610af0565b5b600060030160149054906101000a900460ff16600281111561035957610358610af0565b5b03610399576040517f08c379a000000000000000000000000000000000000000000000000000000000815260040161039090610e4f565b60405180910390fd5b6002808111156103ac576103ab610af0565b5b600060030160149054906101000a900460ff1660028111156103d1576103d0610af0565b5b03610411576040517f08c379a000000000000000000000000000000000000000000000000000000000815260040161040890610ee1565b60405180910390fd5b6000341180156104575750600060028111156104305761042f610af0565b5b600060030160149054906101000a900460ff16600281111561045557610454610af0565b5b145b156105ae57600060030160009054906101000a900473ffffffffffffffffffffffffffffffffffffffff1673ffffffffffffffffffffffffffffffffffffffff166108fc349081150290604051600060405180830381858888f193505050501580156104c7573d6000803e3d6000fd5b5034600060040160008282546104dd9190610f30565b925050819055507f03f16b2483d29ad0afeabfe6712f63a2954fb43908f82221fc81588523ba8009600080013460405161051892919061105d565b60405180910390a1600060050154600060040154106105a9576002600060030160146101000a81548160ff0219169083600281111561055a57610559610af0565b5b02179055507f2be2dd4d0c09300b265ad4a42d8a17400098b52e1bf47769cdaa8b029d143ea4600060030160149054906101000a900460ff166040516105a09190610c70565b60405180910390a15b6105ff565b34600060030160149054906101000a900460ff166040517f28d3f1d30000000000000000000000000000000000000000000000000000000081526004016105f692919061108d565b60405180910390fd5b565b600060030160009054906101000a900473ffffffffffffffffffffffffffffffffffffffff1673ffffffffffffffffffffffffffffffffffffffff163373ffffffffffffffffffffffffffffffffffffffff1614610694576040517f08c379a000000000000000000000000000000000000000000000000000000000815260040161068b90610c50565b60405180910390fd5b60006005015460006004015410156106e1576040517f08c379a00000000000000000000000000000000000000000000000000000000081526004016106d890611128565b60405180910390fd5b600060028111156106f5576106f4610af0565b5b600060030160149054906101000a900460ff16600281111561071a57610719610af0565b5b1461075a576040517f08c379a000000000000000000000000000000000000000000000000000000000815260040161075190611194565b60405180910390fd5b6001600060030160146101000a81548160ff0219169083600281111561078357610782610af0565b5b02179055507f2be2dd4d0c09300b265ad4a42d8a17400098b52e1bf47769cdaa8b029d143ea4600060030160149054906101000a900460ff166040516107c99190610c70565b60405180910390a1565b60008060000180546107e490610f93565b80601f016020809104026020016040519081016040528092919081815260200182805461081090610f93565b801561085d5780601f106108325761010080835404028352916020019161085d565b820191906000526020600020905b81548152906001019060200180831161084057829003601f168201915b50505050509080600101805461087290610f93565b80601f016020809104026020016040519081016040528092919081815260200182805461089e90610f93565b80156108eb5780601f106108c0576101008083540402835291602001916108eb565b820191906000526020600020905b8154815290600101906020018083116108ce57829003601f168201915b50505050509080600201805461090090610f93565b80601f016020809104026020016040519081016040528092919081815260200182805461092c90610f93565b80156109795780601f1061094e57610100808354040283529160200191610979565b820191906000526020600020905b81548152906001019060200180831161095c57829003601f168201915b5050505050908060030160009054906101000a900473ffffffffffffffffffffffffffffffffffffffff16908060030160149054906101000a900460ff16908060040154908060050154905087565b600080fd5b600381106109da57600080fd5b50565b6000813590506109ec816109cd565b92915050565b600060208284031215610a0857610a076109c8565b5b6000610a16848285016109dd565b91505092915050565b600081519050919050565b600082825260208201905092915050565b60005b83811015610a59578082015181840152602081019050610a3e565b60008484015250505050565b6000601f19601f8301169050919050565b6000610a8182610a1f565b610a8b8185610a2a565b9350610a9b818560208601610a3b565b610aa481610a65565b840191505092915050565b600073ffffffffffffffffffffffffffffffffffffffff82169050919050565b6000610ada82610aaf565b9050919050565b610aea81610acf565b82525050565b7f4e487b7100000000000000000000000000000000000000000000000000000000600052602160045260246000fd5b60038110610b3057610b2f610af0565b5b50565b6000819050610b4182610b1f565b919050565b6000610b5182610b33565b9050919050565b610b6181610b46565b82525050565b6000819050919050565b610b7a81610b67565b82525050565b600060e0820190508181036000830152610b9a818a610a76565b90508181036020830152610bae8189610a76565b90508181036040830152610bc28188610a76565b9050610bd16060830187610ae1565b610bde6080830186610b58565b610beb60a0830185610b71565b610bf860c0830184610b71565b98975050505050505050565b7f4f6e6c7920746865206f776e6572000000000000000000000000000000000000600082015250565b6000610c3a600e83610a2a565b9150610c4582610c04565b602082019050919050565b60006020820190508181036000830152610c6981610c2d565b9050919050565b6000602082019050610c856000830184610b58565b92915050565b7f596f752063616e6e6f742072657772697465207468652073616d65207374617460008201527f6500000000000000000000000000000000000000000000000000000000000000602082015250565b6000610ce7602183610a2a565b9150610cf282610c8b565b604082019050919050565b6000604082019050610d126000830184610b58565b8181036020830152610d2381610cda565b905092915050565b7f596f752063616e27742066756e6420796f7572206f776e2070726f6a65637400600082015250565b6000610d61601f83610a2a565b9150610d6c82610d2b565b602082019050919050565b60006020820190508181036000830152610d9081610d54565b9050919050565b7f4e65656420746f2066756e64207769746820616e797468696e67000000000000600082015250565b6000610dcd601a83610a2a565b9150610dd882610d97565b602082019050919050565b60006020820190508181036000830152610dfc81610dc0565b9050919050565b7f5468652070726f6a65637420686173206265656e20636c6f7365640000000000600082015250565b6000610e39601b83610a2a565b9150610e4482610e03565b602082019050919050565b60006020820190508181036000830152610e6881610e2c565b9050919050565b7f5468652070726f6a656374206861732072656163686564206974732066756e6460008201527f72616973696e6720676f616c0000000000000000000000000000000000000000602082015250565b6000610ecb602c83610a2a565b9150610ed682610e6f565b604082019050919050565b60006020820190508181036000830152610efa81610ebe565b9050919050565b7f4e487b7100000000000000000000000000000000000000000000000000000000600052601160045260246000fd5b6000610f3b82610b67565b9150610f4683610b67565b9250828201905080821115610f5e57610f5d610f01565b5b92915050565b7f4e487b7100000000000000000000000000000000000000000000000000000000600052602260045260246000fd5b60006002820490506001821680610fab57607f821691505b602082108103610fbe57610fbd610f64565b5b50919050565b60008190508160005260206000209050919050565b60008154610fe681610f93565b610ff08186610a2a565b9450600182166000811461100b576001811461102157611054565b60ff198316865281151560200286019350611054565b61102a85610fc4565b60005b8381101561104c5781548189015260018201915060208101905061102d565b808801955050505b50505092915050565b600060408201905081810360008301526110778185610fd9565b90506110866020830184610b71565b9392505050565b60006040820190506110a26000830185610b71565b6110af6020830184610b58565b9392505050565b7f5468652066756e6472616973696e6720676f616c20686173206e6f742062656560008201527f6e20726561636865640000000000000000000000000000000000000000000000602082015250565b6000611112602983610a2a565b915061111d826110b6565b604082019050919050565b6000602082019050818103600083015261114181611105565b9050919050565b7f5468652070726f6a656374206973206e6f74206f70656e000000000000000000600082015250565b600061117e601783610a2a565b915061118982611148565b602082019050919050565b600060208201905081810360008301526111ad81611171565b905091905056fea264697066735822122058958dbfd7ccaf7248c9cd788d0686cfea695ff0415b83af4e8d4c29e44a1b5c64736f6c63430008110033",
			"opcodes": "PUSH1 0x80 PUSH1 0x40 MSTORE CALLVALUE DUP1 ISZERO PUSH3 0x11 JUMPI PUSH1 0x0 DUP1 REVERT JUMPDEST POP PUSH1 0x40 MLOAD PUSH3 0x1969 CODESIZE SUB DUP1 PUSH3 0x1969 DUP4 CODECOPY DUP2 DUP2 ADD PUSH1 0x40 MSTORE DUP2 ADD SWAP1 PUSH3 0x37 SWAP2 SWAP1 PUSH3 0x349 JUMP JUMPDEST PUSH1 0x40 MLOAD DUP1 PUSH1 0xE0 ADD PUSH1 0x40 MSTORE DUP1 DUP6 DUP2 MSTORE PUSH1 0x20 ADD DUP5 DUP2 MSTORE PUSH1 0x20 ADD DUP4 DUP2 MSTORE PUSH1 0x20 ADD CALLER PUSH20 0xFFFFFFFFFFFFFFFFFFFFFFFFFFFFFFFFFFFFFFFF AND DUP2 MSTORE PUSH1 0x20 ADD PUSH1 0x0 PUSH1 0x2 DUP2 GT ISZERO PUSH3 0x87 JUMPI PUSH3 0x86 PUSH3 0x418 JUMP JUMPDEST JUMPDEST DUP2 MSTORE PUSH1 0x20 ADD PUSH1 0x0 DUP2 MSTORE PUSH1 0x20 ADD DUP3 DUP2 MSTORE POP PUSH1 0x0 DUP1 DUP3 ADD MLOAD DUP2 PUSH1 0x0 ADD SWAP1 DUP2 PUSH3 0xAF SWAP2 SWAP1 PUSH3 0x688 JUMP JUMPDEST POP PUSH1 0x20 DUP3 ADD MLOAD DUP2 PUSH1 0x1 ADD SWAP1 DUP2 PUSH3 0xC7 SWAP2 SWAP1 PUSH3 0x688 JUMP JUMPDEST POP PUSH1 0x40 DUP3 ADD MLOAD DUP2 PUSH1 0x2 ADD SWAP1 DUP2 PUSH3 0xDF SWAP2 SWAP1 PUSH3 0x688 JUMP JUMPDEST POP PUSH1 0x60 DUP3 ADD MLOAD DUP2 PUSH1 0x3 ADD PUSH1 0x0 PUSH2 0x100 EXP DUP2 SLOAD DUP2 PUSH20 0xFFFFFFFFFFFFFFFFFFFFFFFFFFFFFFFFFFFFFFFF MUL NOT AND SWAP1 DUP4 PUSH20 0xFFFFFFFFFFFFFFFFFFFFFFFFFFFFFFFFFFFFFFFF AND MUL OR SWAP1 SSTORE POP PUSH1 0x80 DUP3 ADD MLOAD DUP2 PUSH1 0x3 ADD PUSH1 0x14 PUSH2 0x100 EXP DUP2 SLOAD DUP2 PUSH1 0xFF MUL NOT AND SWAP1 DUP4 PUSH1 0x2 DUP2 GT ISZERO PUSH3 0x155 JUMPI PUSH3 0x154 PUSH3 0x418 JUMP JUMPDEST JUMPDEST MUL OR SWAP1 SSTORE POP PUSH1 0xA0 DUP3 ADD MLOAD DUP2 PUSH1 0x4 ADD SSTORE PUSH1 0xC0 DUP3 ADD MLOAD DUP2 PUSH1 0x5 ADD SSTORE SWAP1 POP POP POP POP POP POP PUSH3 0x76F JUMP JUMPDEST PUSH1 0x0 PUSH1 0x40 MLOAD SWAP1 POP SWAP1 JUMP JUMPDEST PUSH1 0x0 DUP1 REVERT JUMPDEST PUSH1 0x0 DUP1 REVERT JUMPDEST PUSH1 0x0 DUP1 REVERT JUMPDEST PUSH1 0x0 DUP1 REVERT JUMPDEST PUSH1 0x0 PUSH1 0x1F NOT PUSH1 0x1F DUP4 ADD AND SWAP1 POP SWAP2 SWAP1 POP JUMP JUMPDEST PUSH32 0x4E487B7100000000000000000000000000000000000000000000000000000000 PUSH1 0x0 MSTORE PUSH1 0x41 PUSH1 0x4 MSTORE PUSH1 0x24 PUSH1 0x0 REVERT JUMPDEST PUSH3 0x1E4 DUP3 PUSH3 0x199 JUMP JUMPDEST DUP2 ADD DUP2 DUP2 LT PUSH8 0xFFFFFFFFFFFFFFFF DUP3 GT OR ISZERO PUSH3 0x206 JUMPI PUSH3 0x205 PUSH3 0x1AA JUMP JUMPDEST JUMPDEST DUP1 PUSH1 0x40 MSTORE POP POP POP JUMP JUMPDEST PUSH1 0x0 PUSH3 0x21B PUSH3 0x17B JUMP JUMPDEST SWAP1 POP PUSH3 0x229 DUP3 DUP3 PUSH3 0x1D9 JUMP JUMPDEST SWAP2 SWAP1 POP JUMP JUMPDEST PUSH1 0x0 PUSH8 0xFFFFFFFFFFFFFFFF DUP3 GT ISZERO PUSH3 0x24C JUMPI PUSH3 0x24B PUSH3 0x1AA JUMP JUMPDEST JUMPDEST PUSH3 0x257 DUP3 PUSH3 0x199 JUMP JUMPDEST SWAP1 POP PUSH1 0x20 DUP2 ADD SWAP1 POP SWAP2 SWAP1 POP JUMP JUMPDEST PUSH1 0x0 JUMPDEST DUP4 DUP2 LT ISZERO PUSH3 0x284 JUMPI DUP1 DUP3 ADD MLOAD DUP2 DUP5 ADD MSTORE PUSH1 0x20 DUP2 ADD SWAP1 POP PUSH3 0x267 JUMP JUMPDEST PUSH1 0x0 DUP5 DUP5 ADD MSTORE POP POP POP POP JUMP JUMPDEST PUSH1 0x0 PUSH3 0x2A7 PUSH3 0x2A1 DUP5 PUSH3 0x22E JUMP JUMPDEST PUSH3 0x20F JUMP JUMPDEST SWAP1 POP DUP3 DUP2 MSTORE PUSH1 0x20 DUP2 ADD DUP5 DUP5 DUP5 ADD GT ISZERO PUSH3 0x2C6 JUMPI PUSH3 0x2C5 PUSH3 0x194 JUMP JUMPDEST JUMPDEST PUSH3 0x2D3 DUP5 DUP3 DUP6 PUSH3 0x264 JUMP JUMPDEST POP SWAP4 SWAP3 POP POP POP JUMP JUMPDEST PUSH1 0x0 DUP3 PUSH1 0x1F DUP4 ADD SLT PUSH3 0x2F3 JUMPI PUSH3 0x2F2 PUSH3 0x18F JUMP JUMPDEST JUMPDEST DUP2 MLOAD PUSH3 0x305 DUP5 DUP3 PUSH1 0x20 DUP7 ADD PUSH3 0x290 JUMP JUMPDEST SWAP2 POP POP SWAP3 SWAP2 POP POP JUMP JUMPDEST PUSH1 0x0 DUP2 SWAP1 POP SWAP2 SWAP1 POP JUMP JUMPDEST PUSH3 0x323 DUP2 PUSH3 0x30E JUMP JUMPDEST DUP2 EQ PUSH3 0x32F JUMPI PUSH1 0x0 DUP1 REVERT JUMPDEST POP JUMP JUMPDEST PUSH1 0x0 DUP2 MLOAD SWAP1 POP PUSH3 0x343 DUP2 PUSH3 0x318 JUMP JUMPDEST SWAP3 SWAP2 POP POP JUMP JUMPDEST PUSH1 0x0 DUP1 PUSH1 0x0 DUP1 PUSH1 0x80 DUP6 DUP8 SUB SLT ISZERO PUSH3 0x366 JUMPI PUSH3 0x365 PUSH3 0x185 JUMP JUMPDEST JUMPDEST PUSH1 0x0 DUP6 ADD MLOAD PUSH8 0xFFFFFFFFFFFFFFFF DUP2 GT ISZERO PUSH3 0x387 JUMPI PUSH3 0x386 PUSH3 0x18A JUMP JUMPDEST JUMPDEST PUSH3 0x395 DUP8 DUP3 DUP9 ADD PUSH3 0x2DB JUMP JUMPDEST SWAP5 POP POP PUSH1 0x20 DUP6 ADD MLOAD PUSH8 0xFFFFFFFFFFFFFFFF DUP2 GT ISZERO PUSH3 0x3B9 JUMPI PUSH3 0x3B8 PUSH3 0x18A JUMP JUMPDEST JUMPDEST PUSH3 0x3C7 DUP8 DUP3 DUP9 ADD PUSH3 0x2DB JUMP JUMPDEST SWAP4 POP POP PUSH1 0x40 DUP6 ADD MLOAD PUSH8 0xFFFFFFFFFFFFFFFF DUP2 GT ISZERO PUSH3 0x3EB JUMPI PUSH3 0x3EA PUSH3 0x18A JUMP JUMPDEST JUMPDEST PUSH3 0x3F9 DUP8 DUP3 DUP9 ADD PUSH3 0x2DB JUMP JUMPDEST SWAP3 POP POP PUSH1 0x60 PUSH3 0x40C DUP8 DUP3 DUP9 ADD PUSH3 0x332 JUMP JUMPDEST SWAP2 POP POP SWAP3 SWAP6 SWAP2 SWAP5 POP SWAP3 POP JUMP JUMPDEST PUSH32 0x4E487B7100000000000000000000000000000000000000000000000000000000 PUSH1 0x0 MSTORE PUSH1 0x21 PUSH1 0x4 MSTORE PUSH1 0x24 PUSH1 0x0 REVERT JUMPDEST PUSH1 0x0 DUP2 MLOAD SWAP1 POP SWAP2 SWAP1 POP JUMP JUMPDEST PUSH32 0x4E487B7100000000000000000000000000000000000000000000000000000000 PUSH1 0x0 MSTORE PUSH1 0x22 PUSH1 0x4 MSTORE PUSH1 0x24 PUSH1 0x0 REVERT JUMPDEST PUSH1 0x0 PUSH1 0x2 DUP3 DIV SWAP1 POP PUSH1 0x1 DUP3 AND DUP1 PUSH3 0x49A JUMPI PUSH1 0x7F DUP3 AND SWAP2 POP JUMPDEST PUSH1 0x20 DUP3 LT DUP2 SUB PUSH3 0x4B0 JUMPI PUSH3 0x4AF PUSH3 0x452 JUMP JUMPDEST JUMPDEST POP SWAP2 SWAP1 POP JUMP JUMPDEST PUSH1 0x0 DUP2 SWAP1 POP DUP2 PUSH1 0x0 MSTORE PUSH1 0x20 PUSH1 0x0 KECCAK256 SWAP1 POP SWAP2 SWAP1 POP JUMP JUMPDEST PUSH1 0x0 PUSH1 0x20 PUSH1 0x1F DUP4 ADD DIV SWAP1 POP SWAP2 SWAP1 POP JUMP JUMPDEST PUSH1 0x0 DUP3 DUP3 SHL SWAP1 POP SWAP3 SWAP2 POP POP JUMP JUMPDEST PUSH1 0x0 PUSH1 0x8 DUP4 MUL PUSH3 0x51A PUSH32 0xFFFFFFFFFFFFFFFFFFFFFFFFFFFFFFFFFFFFFFFFFFFFFFFFFFFFFFFFFFFFFFFF DUP3 PUSH3 0x4DB JUMP JUMPDEST PUSH3 0x526 DUP7 DUP4 PUSH3 0x4DB JUMP JUMPDEST SWAP6 POP DUP1 NOT DUP5 AND SWAP4 POP DUP1 DUP7 AND DUP5 OR SWAP3 POP POP POP SWAP4 SWAP3 POP POP POP JUMP JUMPDEST PUSH1 0x0 DUP2 SWAP1 POP SWAP2 SWAP1 POP JUMP JUMPDEST PUSH1 0x0 PUSH3 0x569 PUSH3 0x563 PUSH3 0x55D DUP5 PUSH3 0x30E JUMP JUMPDEST PUSH3 0x53E JUMP JUMPDEST PUSH3 0x30E JUMP JUMPDEST SWAP1 POP SWAP2 SWAP1 POP JUMP JUMPDEST PUSH1 0x0 DUP2 SWAP1 POP SWAP2 SWAP1 POP JUMP JUMPDEST PUSH3 0x585 DUP4 PUSH3 0x548 JUMP JUMPDEST PUSH3 0x59D PUSH3 0x594 DUP3 PUSH3 0x570 JUMP JUMPDEST DUP5 DUP5 SLOAD PUSH3 0x4E8 JUMP JUMPDEST DUP3 SSTORE POP POP POP POP JUMP JUMPDEST PUSH1 0x0 SWAP1 JUMP JUMPDEST PUSH3 0x5B4 PUSH3 0x5A5 JUMP JUMPDEST PUSH3 0x5C1 DUP2 DUP5 DUP5 PUSH3 0x57A JUMP JUMPDEST POP POP POP JUMP JUMPDEST JUMPDEST DUP2 DUP2 LT ISZERO PUSH3 0x5E9 JUMPI PUSH3 0x5DD PUSH1 0x0 DUP3 PUSH3 0x5AA JUMP JUMPDEST PUSH1 0x1 DUP2 ADD SWAP1 POP PUSH3 0x5C7 JUMP JUMPDEST POP POP JUMP JUMPDEST PUSH1 0x1F DUP3 GT ISZERO PUSH3 0x638 JUMPI PUSH3 0x602 DUP2 PUSH3 0x4B6 JUMP JUMPDEST PUSH3 0x60D DUP5 PUSH3 0x4CB JUMP JUMPDEST DUP2 ADD PUSH1 0x20 DUP6 LT ISZERO PUSH3 0x61D JUMPI DUP2 SWAP1 POP JUMPDEST PUSH3 0x635 PUSH3 0x62C DUP6 PUSH3 0x4CB JUMP JUMPDEST DUP4 ADD DUP3 PUSH3 0x5C6 JUMP JUMPDEST POP POP JUMPDEST POP POP POP JUMP JUMPDEST PUSH1 0x0 DUP3 DUP3 SHR SWAP1 POP SWAP3 SWAP2 POP POP JUMP JUMPDEST PUSH1 0x0 PUSH3 0x65D PUSH1 0x0 NOT DUP5 PUSH1 0x8 MUL PUSH3 0x63D JUMP JUMPDEST NOT DUP1 DUP4 AND SWAP2 POP POP SWAP3 SWAP2 POP POP JUMP JUMPDEST PUSH1 0x0 PUSH3 0x678 DUP4 DUP4 PUSH3 0x64A JUMP JUMPDEST SWAP2 POP DUP3 PUSH1 0x2 MUL DUP3 OR SWAP1 POP SWAP3 SWAP2 POP POP JUMP JUMPDEST PUSH3 0x693 DUP3 PUSH3 0x447 JUMP JUMPDEST PUSH8 0xFFFFFFFFFFFFFFFF DUP2 GT ISZERO PUSH3 0x6AF JUMPI PUSH3 0x6AE PUSH3 0x1AA JUMP JUMPDEST JUMPDEST PUSH3 0x6BB DUP3 SLOAD PUSH3 0x481 JUMP JUMPDEST PUSH3 0x6C8 DUP3 DUP3 DUP6 PUSH3 0x5ED JUMP JUMPDEST PUSH1 0x0 PUSH1 0x20 SWAP1 POP PUSH1 0x1F DUP4 GT PUSH1 0x1 DUP2 EQ PUSH3 0x700 JUMPI PUSH1 0x0 DUP5 ISZERO PUSH3 0x6EB JUMPI DUP3 DUP8 ADD MLOAD SWAP1 POP JUMPDEST PUSH3 0x6F7 DUP6 DUP3 PUSH3 0x66A JUMP JUMPDEST DUP7 SSTORE POP PUSH3 0x767 JUMP JUMPDEST PUSH1 0x1F NOT DUP5 AND PUSH3 0x710 DUP7 PUSH3 0x4B6 JUMP JUMPDEST PUSH1 0x0 JUMPDEST DUP3 DUP2 LT ISZERO PUSH3 0x73A JUMPI DUP5 DUP10 ADD MLOAD DUP3 SSTORE PUSH1 0x1 DUP3 ADD SWAP2 POP PUSH1 0x20 DUP6 ADD SWAP5 POP PUSH1 0x20 DUP2 ADD SWAP1 POP PUSH3 0x713 JUMP JUMPDEST DUP7 DUP4 LT ISZERO PUSH3 0x75A JUMPI DUP5 DUP10 ADD MLOAD PUSH3 0x756 PUSH1 0x1F DUP10 AND DUP3 PUSH3 0x64A JUMP JUMPDEST DUP4 SSTORE POP JUMPDEST PUSH1 0x1 PUSH1 0x2 DUP9 MUL ADD DUP9 SSTORE POP POP POP JUMPDEST POP POP POP POP POP POP JUMP JUMPDEST PUSH2 0x11EA DUP1 PUSH3 0x77F PUSH1 0x0 CODECOPY PUSH1 0x0 RETURN INVALID PUSH1 0x80 PUSH1 0x40 MSTORE PUSH1 0x4 CALLDATASIZE LT PUSH2 0x3F JUMPI PUSH1 0x0 CALLDATALOAD PUSH1 0xE0 SHR DUP1 PUSH4 0x5699FADC EQ PUSH2 0x44 JUMPI DUP1 PUSH4 0xD63DC661 EQ PUSH2 0x6D JUMPI DUP1 PUSH4 0xD8B9182B EQ PUSH2 0x77 JUMPI DUP1 PUSH4 0xF60CA60D EQ PUSH2 0x8E JUMPI JUMPDEST PUSH1 0x0 DUP1 REVERT JUMPDEST CALLVALUE DUP1 ISZERO PUSH2 0x50 JUMPI PUSH1 0x0 DUP1 REVERT JUMPDEST POP PUSH2 0x6B PUSH1 0x4 DUP1 CALLDATASIZE SUB DUP2 ADD SWAP1 PUSH2 0x66 SWAP2 SWAP1 PUSH2 0x9F2 JUMP JUMPDEST PUSH2 0xBF JUMP JUMPDEST STOP JUMPDEST PUSH2 0x75 PUSH2 0x24A JUMP JUMPDEST STOP JUMPDEST CALLVALUE DUP1 ISZERO PUSH2 0x83 JUMPI PUSH1 0x0 DUP1 REVERT JUMPDEST POP PUSH2 0x8C PUSH2 0x601 JUMP JUMPDEST STOP JUMPDEST CALLVALUE DUP1 ISZERO PUSH2 0x9A JUMPI PUSH1 0x0 DUP1 REVERT JUMPDEST POP PUSH2 0xA3 PUSH2 0x7D3 JUMP JUMPDEST PUSH1 0x40 MLOAD PUSH2 0xB6 SWAP8 SWAP7 SWAP6 SWAP5 SWAP4 SWAP3 SWAP2 SWAP1 PUSH2 0xB80 JUMP JUMPDEST PUSH1 0x40 MLOAD DUP1 SWAP2 SUB SWAP1 RETURN JUMPDEST PUSH1 0x0 PUSH1 0x3 ADD PUSH1 0x0 SWAP1 SLOAD SWAP1 PUSH2 0x100 EXP SWAP1 DIV PUSH20 0xFFFFFFFFFFFFFFFFFFFFFFFFFFFFFFFFFFFFFFFF AND PUSH20 0xFFFFFFFFFFFFFFFFFFFFFFFFFFFFFFFFFFFFFFFF AND CALLER PUSH20 0xFFFFFFFFFFFFFFFFFFFFFFFFFFFFFFFFFFFFFFFF AND EQ PUSH2 0x152 JUMPI PUSH1 0x40 MLOAD PUSH32 0x8C379A000000000000000000000000000000000000000000000000000000000 DUP2 MSTORE PUSH1 0x4 ADD PUSH2 0x149 SWAP1 PUSH2 0xC50 JUMP JUMPDEST PUSH1 0x40 MLOAD DUP1 SWAP2 SUB SWAP1 REVERT JUMPDEST PUSH1 0x0 PUSH1 0x3 ADD PUSH1 0x14 SWAP1 SLOAD SWAP1 PUSH2 0x100 EXP SWAP1 DIV PUSH1 0xFF AND PUSH1 0x2 DUP2 GT ISZERO PUSH2 0x177 JUMPI PUSH2 0x176 PUSH2 0xAF0 JUMP JUMPDEST JUMPDEST DUP2 PUSH1 0x2 DUP2 GT ISZERO PUSH2 0x18A JUMPI PUSH2 0x189 PUSH2 0xAF0 JUMP JUMPDEST JUMPDEST EQ PUSH2 0x20A JUMPI DUP1 PUSH1 0x0 PUSH1 0x3 ADD PUSH1 0x14 PUSH2 0x100 EXP DUP2 SLOAD DUP2 PUSH1 0xFF MUL NOT AND SWAP1 DUP4 PUSH1 0x2 DUP2 GT ISZERO PUSH2 0x1B7 JUMPI PUSH2 0x1B6 PUSH2 0xAF0 JUMP JUMPDEST JUMPDEST MUL OR SWAP1 SSTORE POP PUSH32 0x2BE2DD4D0C09300B265AD4A42D8A17400098B52E1BF47769CDAA8B029D143EA4 PUSH1 0x0 PUSH1 0x3 ADD PUSH1 0x14 SWAP1 SLOAD SWAP1 PUSH2 0x100 EXP SWAP1 DIV PUSH1 0xFF AND PUSH1 0x40 MLOAD PUSH2 0x1FD SWAP2 SWAP1 PUSH2 0xC70 JUMP JUMPDEST PUSH1 0x40 MLOAD DUP1 SWAP2 SUB SWAP1 LOG1 PUSH2 0x247 JUMP JUMPDEST DUP1 PUSH1 0x40 MLOAD PUSH32 0xF3A08E8700000000000000000000000000000000000000000000000000000000 DUP2 MSTORE PUSH1 0x4 ADD PUSH2 0x23E SWAP2 SWAP1 PUSH2 0xCFD JUMP JUMPDEST PUSH1 0x40 MLOAD DUP1 SWAP2 SUB SWAP1 REVERT JUMPDEST POP JUMP JUMPDEST PUSH1 0x0 PUSH1 0x3 ADD PUSH1 0x0 SWAP1 SLOAD SWAP1 PUSH2 0x100 EXP SWAP1 DIV PUSH20 0xFFFFFFFFFFFFFFFFFFFFFFFFFFFFFFFFFFFFFFFF AND PUSH20 0xFFFFFFFFFFFFFFFFFFFFFFFFFFFFFFFFFFFFFFFF AND CALLER PUSH20 0xFFFFFFFFFFFFFFFFFFFFFFFFFFFFFFFFFFFFFFFF AND SUB PUSH2 0x2DD JUMPI PUSH1 0x40 MLOAD PUSH32 0x8C379A000000000000000000000000000000000000000000000000000000000 DUP2 MSTORE PUSH1 0x4 ADD PUSH2 0x2D4 SWAP1 PUSH2 0xD77 JUMP JUMPDEST PUSH1 0x40 MLOAD DUP1 SWAP2 SUB SWAP1 REVERT JUMPDEST PUSH1 0x0 CALLVALUE GT PUSH2 0x320 JUMPI PUSH1 0x40 MLOAD PUSH32 0x8C379A000000000000000000000000000000000000000000000000000000000 DUP2 MSTORE PUSH1 0x4 ADD PUSH2 0x317 SWAP1 PUSH2 0xDE3 JUMP JUMPDEST PUSH1 0x40 MLOAD DUP1 SWAP2 SUB SWAP1 REVERT JUMPDEST PUSH1 0x1 PUSH1 0x2 DUP2 GT ISZERO PUSH2 0x334 JUMPI PUSH2 0x333 PUSH2 0xAF0 JUMP JUMPDEST JUMPDEST PUSH1 0x0 PUSH1 0x3 ADD PUSH1 0x14 SWAP1 SLOAD SWAP1 PUSH2 0x100 EXP SWAP1 DIV PUSH1 0xFF AND PUSH1 0x2 DUP2 GT ISZERO PUSH2 0x359 JUMPI PUSH2 0x358 PUSH2 0xAF0 JUMP JUMPDEST JUMPDEST SUB PUSH2 0x399 JUMPI PUSH1 0x40 MLOAD PUSH32 0x8C379A000000000000000000000000000000000000000000000000000000000 DUP2 MSTORE PUSH1 0x4 ADD PUSH2 0x390 SWAP1 PUSH2 0xE4F JUMP JUMPDEST PUSH1 0x40 MLOAD DUP1 SWAP2 SUB SWAP1 REVERT JUMPDEST PUSH1 0x2 DUP1 DUP2 GT ISZERO PUSH2 0x3AC JUMPI PUSH2 0x3AB PUSH2 0xAF0 JUMP JUMPDEST JUMPDEST PUSH1 0x0 PUSH1 0x3 ADD PUSH1 0x14 SWAP1 SLOAD SWAP1 PUSH2 0x100 EXP SWAP1 DIV PUSH1 0xFF AND PUSH1 0x2 DUP2 GT ISZERO PUSH2 0x3D1 JUMPI PUSH2 0x3D0 PUSH2 0xAF0 JUMP JUMPDEST JUMPDEST SUB PUSH2 0x411 JUMPI PUSH1 0x40 MLOAD PUSH32 0x8C379A000000000000000000000000000000000000000000000000000000000 DUP2 MSTORE PUSH1 0x4 ADD PUSH2 0x408 SWAP1 PUSH2 0xEE1 JUMP JUMPDEST PUSH1 0x40 MLOAD DUP1 SWAP2 SUB SWAP1 REVERT JUMPDEST PUSH1 0x0 CALLVALUE GT DUP1 ISZERO PUSH2 0x457 JUMPI POP PUSH1 0x0 PUSH1 0x2 DUP2 GT ISZERO PUSH2 0x430 JUMPI PUSH2 0x42F PUSH2 0xAF0 JUMP JUMPDEST JUMPDEST PUSH1 0x0 PUSH1 0x3 ADD PUSH1 0x14 SWAP1 SLOAD SWAP1 PUSH2 0x100 EXP SWAP1 DIV PUSH1 0xFF AND PUSH1 0x2 DUP2 GT ISZERO PUSH2 0x455 JUMPI PUSH2 0x454 PUSH2 0xAF0 JUMP JUMPDEST JUMPDEST EQ JUMPDEST ISZERO PUSH2 0x5AE JUMPI PUSH1 0x0 PUSH1 0x3 ADD PUSH1 0x0 SWAP1 SLOAD SWAP1 PUSH2 0x100 EXP SWAP1 DIV PUSH20 0xFFFFFFFFFFFFFFFFFFFFFFFFFFFFFFFFFFFFFFFF AND PUSH20 0xFFFFFFFFFFFFFFFFFFFFFFFFFFFFFFFFFFFFFFFF AND PUSH2 0x8FC CALLVALUE SWAP1 DUP2 ISZERO MUL SWAP1 PUSH1 0x40 MLOAD PUSH1 0x0 PUSH1 0x40 MLOAD DUP1 DUP4 SUB DUP2 DUP6 DUP9 DUP9 CALL SWAP4 POP POP POP POP ISZERO DUP1 ISZERO PUSH2 0x4C7 JUMPI RETURNDATASIZE PUSH1 0x0 DUP1 RETURNDATACOPY RETURNDATASIZE PUSH1 0x0 REVERT JUMPDEST POP CALLVALUE PUSH1 0x0 PUSH1 0x4 ADD PUSH1 0x0 DUP3 DUP3 SLOAD PUSH2 0x4DD SWAP2 SWAP1 PUSH2 0xF30 JUMP JUMPDEST SWAP3 POP POP DUP2 SWAP1 SSTORE POP PUSH32 0x3F16B2483D29AD0AFEABFE6712F63A2954FB43908F82221FC81588523BA8009 PUSH1 0x0 DUP1 ADD CALLVALUE PUSH1 0x40 MLOAD PUSH2 0x518 SWAP3 SWAP2 SWAP1 PUSH2 0x105D JUMP JUMPDEST PUSH1 0x40 MLOAD DUP1 SWAP2 SUB SWAP1 LOG1 PUSH1 0x0 PUSH1 0x5 ADD SLOAD PUSH1 0x0 PUSH1 0x4 ADD SLOAD LT PUSH2 0x5A9 JUMPI PUSH1 0x2 PUSH1 0x0 PUSH1 0x3 ADD PUSH1 0x14 PUSH2 0x100 EXP DUP2 SLOAD DUP2 PUSH1 0xFF MUL NOT AND SWAP1 DUP4 PUSH1 0x2 DUP2 GT ISZERO PUSH2 0x55A JUMPI PUSH2 0x559 PUSH2 0xAF0 JUMP JUMPDEST JUMPDEST MUL OR SWAP1 SSTORE POP PUSH32 0x2BE2DD4D0C09300B265AD4A42D8A17400098B52E1BF47769CDAA8B029D143EA4 PUSH1 0x0 PUSH1 0x3 ADD PUSH1 0x14 SWAP1 SLOAD SWAP1 PUSH2 0x100 EXP SWAP1 DIV PUSH1 0xFF AND PUSH1 0x40 MLOAD PUSH2 0x5A0 SWAP2 SWAP1 PUSH2 0xC70 JUMP JUMPDEST PUSH1 0x40 MLOAD DUP1 SWAP2 SUB SWAP1 LOG1 JUMPDEST PUSH2 0x5FF JUMP JUMPDEST CALLVALUE PUSH1 0x0 PUSH1 0x3 ADD PUSH1 0x14 SWAP1 SLOAD SWAP1 PUSH2 0x100 EXP SWAP1 DIV PUSH1 0xFF AND PUSH1 0x40 MLOAD PUSH32 0x28D3F1D300000000000000000000000000000000000000000000000000000000 DUP2 MSTORE PUSH1 0x4 ADD PUSH2 0x5F6 SWAP3 SWAP2 SWAP1 PUSH2 0x108D JUMP JUMPDEST PUSH1 0x40 MLOAD DUP1 SWAP2 SUB SWAP1 REVERT JUMPDEST JUMP JUMPDEST PUSH1 0x0 PUSH1 0x3 ADD PUSH1 0x0 SWAP1 SLOAD SWAP1 PUSH2 0x100 EXP SWAP1 DIV PUSH20 0xFFFFFFFFFFFFFFFFFFFFFFFFFFFFFFFFFFFFFFFF AND PUSH20 0xFFFFFFFFFFFFFFFFFFFFFFFFFFFFFFFFFFFFFFFF AND CALLER PUSH20 0xFFFFFFFFFFFFFFFFFFFFFFFFFFFFFFFFFFFFFFFF AND EQ PUSH2 0x694 JUMPI PUSH1 0x40 MLOAD PUSH32 0x8C379A000000000000000000000000000000000000000000000000000000000 DUP2 MSTORE PUSH1 0x4 ADD PUSH2 0x68B SWAP1 PUSH2 0xC50 JUMP JUMPDEST PUSH1 0x40 MLOAD DUP1 SWAP2 SUB SWAP1 REVERT JUMPDEST PUSH1 0x0 PUSH1 0x5 ADD SLOAD PUSH1 0x0 PUSH1 0x4 ADD SLOAD LT ISZERO PUSH2 0x6E1 JUMPI PUSH1 0x40 MLOAD PUSH32 0x8C379A000000000000000000000000000000000000000000000000000000000 DUP2 MSTORE PUSH1 0x4 ADD PUSH2 0x6D8 SWAP1 PUSH2 0x1128 JUMP JUMPDEST PUSH1 0x40 MLOAD DUP1 SWAP2 SUB SWAP1 REVERT JUMPDEST PUSH1 0x0 PUSH1 0x2 DUP2 GT ISZERO PUSH2 0x6F5 JUMPI PUSH2 0x6F4 PUSH2 0xAF0 JUMP JUMPDEST JUMPDEST PUSH1 0x0 PUSH1 0x3 ADD PUSH1 0x14 SWAP1 SLOAD SWAP1 PUSH2 0x100 EXP SWAP1 DIV PUSH1 0xFF AND PUSH1 0x2 DUP2 GT ISZERO PUSH2 0x71A JUMPI PUSH2 0x719 PUSH2 0xAF0 JUMP JUMPDEST JUMPDEST EQ PUSH2 0x75A JUMPI PUSH1 0x40 MLOAD PUSH32 0x8C379A000000000000000000000000000000000000000000000000000000000 DUP2 MSTORE PUSH1 0x4 ADD PUSH2 0x751 SWAP1 PUSH2 0x1194 JUMP JUMPDEST PUSH1 0x40 MLOAD DUP1 SWAP2 SUB SWAP1 REVERT JUMPDEST PUSH1 0x1 PUSH1 0x0 PUSH1 0x3 ADD PUSH1 0x14 PUSH2 0x100 EXP DUP2 SLOAD DUP2 PUSH1 0xFF MUL NOT AND SWAP1 DUP4 PUSH1 0x2 DUP2 GT ISZERO PUSH2 0x783 JUMPI PUSH2 0x782 PUSH2 0xAF0 JUMP JUMPDEST JUMPDEST MUL OR SWAP1 SSTORE POP PUSH32 0x2BE2DD4D0C09300B265AD4A42D8A17400098B52E1BF47769CDAA8B029D143EA4 PUSH1 0x0 PUSH1 0x3 ADD PUSH1 0x14 SWAP1 SLOAD SWAP1 PUSH2 0x100 EXP SWAP1 DIV PUSH1 0xFF AND PUSH1 0x40 MLOAD PUSH2 0x7C9 SWAP2 SWAP1 PUSH2 0xC70 JUMP JUMPDEST PUSH1 0x40 MLOAD DUP1 SWAP2 SUB SWAP1 LOG1 JUMP JUMPDEST PUSH1 0x0 DUP1 PUSH1 0x0 ADD DUP1 SLOAD PUSH2 0x7E4 SWAP1 PUSH2 0xF93 JUMP JUMPDEST DUP1 PUSH1 0x1F ADD PUSH1 0x20 DUP1 SWAP2 DIV MUL PUSH1 0x20 ADD PUSH1 0x40 MLOAD SWAP1 DUP2 ADD PUSH1 0x40 MSTORE DUP1 SWAP3 SWAP2 SWAP1 DUP2 DUP2 MSTORE PUSH1 0x20 ADD DUP3 DUP1 SLOAD PUSH2 0x810 SWAP1 PUSH2 0xF93 JUMP JUMPDEST DUP1 ISZERO PUSH2 0x85D JUMPI DUP1 PUSH1 0x1F LT PUSH2 0x832 JUMPI PUSH2 0x100 DUP1 DUP4 SLOAD DIV MUL DUP4 MSTORE SWAP2 PUSH1 0x20 ADD SWAP2 PUSH2 0x85D JUMP JUMPDEST DUP3 ADD SWAP2 SWAP1 PUSH1 0x0 MSTORE PUSH1 0x20 PUSH1 0x0 KECCAK256 SWAP1 JUMPDEST DUP2 SLOAD DUP2 MSTORE SWAP1 PUSH1 0x1 ADD SWAP1 PUSH1 0x20 ADD DUP1 DUP4 GT PUSH2 0x840 JUMPI DUP3 SWAP1 SUB PUSH1 0x1F AND DUP3 ADD SWAP2 JUMPDEST POP POP POP POP POP SWAP1 DUP1 PUSH1 0x1 ADD DUP1 SLOAD PUSH2 0x872 SWAP1 PUSH2 0xF93 JUMP JUMPDEST DUP1 PUSH1 0x1F ADD PUSH1 0x20 DUP1 SWAP2 DIV MUL PUSH1 0x20 ADD PUSH1 0x40 MLOAD SWAP1 DUP2 ADD PUSH1 0x40 MSTORE DUP1 SWAP3 SWAP2 SWAP1 DUP2 DUP2 MSTORE PUSH1 0x20 ADD DUP3 DUP1 SLOAD PUSH2 0x89E SWAP1 PUSH2 0xF93 JUMP JUMPDEST DUP1 ISZERO PUSH2 0x8EB JUMPI DUP1 PUSH1 0x1F LT PUSH2 0x8C0 JUMPI PUSH2 0x100 DUP1 DUP4 SLOAD DIV MUL DUP4 MSTORE SWAP2 PUSH1 0x20 ADD SWAP2 PUSH2 0x8EB JUMP JUMPDEST DUP3 ADD SWAP2 SWAP1 PUSH1 0x0 MSTORE PUSH1 0x20 PUSH1 0x0 KECCAK256 SWAP1 JUMPDEST DUP2 SLOAD DUP2 MSTORE SWAP1 PUSH1 0x1 ADD SWAP1 PUSH1 0x20 ADD DUP1 DUP4 GT PUSH2 0x8CE JUMPI DUP3 SWAP1 SUB PUSH1 0x1F AND DUP3 ADD SWAP2 JUMPDEST POP POP POP POP POP SWAP1 DUP1 PUSH1 0x2 ADD DUP1 SLOAD PUSH2 0x900 SWAP1 PUSH2 0xF93 JUMP JUMPDEST DUP1 PUSH1 0x1F ADD PUSH1 0x20 DUP1 SWAP2 DIV MUL PUSH1 0x20 ADD PUSH1 0x40 MLOAD SWAP1 DUP2 ADD PUSH1 0x40 MSTORE DUP1 SWAP3 SWAP2 SWAP1 DUP2 DUP2 MSTORE PUSH1 0x20 ADD DUP3 DUP1 SLOAD PUSH2 0x92C SWAP1 PUSH2 0xF93 JUMP JUMPDEST DUP1 ISZERO PUSH2 0x979 JUMPI DUP1 PUSH1 0x1F LT PUSH2 0x94E JUMPI PUSH2 0x100 DUP1 DUP4 SLOAD DIV MUL DUP4 MSTORE SWAP2 PUSH1 0x20 ADD SWAP2 PUSH2 0x979 JUMP JUMPDEST DUP3 ADD SWAP2 SWAP1 PUSH1 0x0 MSTORE PUSH1 0x20 PUSH1 0x0 KECCAK256 SWAP1 JUMPDEST DUP2 SLOAD DUP2 MSTORE SWAP1 PUSH1 0x1 ADD SWAP1 PUSH1 0x20 ADD DUP1 DUP4 GT PUSH2 0x95C JUMPI DUP3 SWAP1 SUB PUSH1 0x1F AND DUP3 ADD SWAP2 JUMPDEST POP POP POP POP POP SWAP1 DUP1 PUSH1 0x3 ADD PUSH1 0x0 SWAP1 SLOAD SWAP1 PUSH2 0x100 EXP SWAP1 DIV PUSH20 0xFFFFFFFFFFFFFFFFFFFFFFFFFFFFFFFFFFFFFFFF AND SWAP1 DUP1 PUSH1 0x3 ADD PUSH1 0x14 SWAP1 SLOAD SWAP1 PUSH2 0x100 EXP SWAP1 DIV PUSH1 0xFF AND SWAP1 DUP1 PUSH1 0x4 ADD SLOAD SWAP1 DUP1 PUSH1 0x5 ADD SLOAD SWAP1 POP DUP8 JUMP JUMPDEST PUSH1 0x0 DUP1 REVERT JUMPDEST PUSH1 0x3 DUP2 LT PUSH2 0x9DA JUMPI PUSH1 0x0 DUP1 REVERT JUMPDEST POP JUMP JUMPDEST PUSH1 0x0 DUP2 CALLDATALOAD SWAP1 POP PUSH2 0x9EC DUP2 PUSH2 0x9CD JUMP JUMPDEST SWAP3 SWAP2 POP POP JUMP JUMPDEST PUSH1 0x0 PUSH1 0x20 DUP3 DUP5 SUB SLT ISZERO PUSH2 0xA08 JUMPI PUSH2 0xA07 PUSH2 0x9C8 JUMP JUMPDEST JUMPDEST PUSH1 0x0 PUSH2 0xA16 DUP5 DUP3 DUP6 ADD PUSH2 0x9DD JUMP JUMPDEST SWAP2 POP POP SWAP3 SWAP2 POP POP JUMP JUMPDEST PUSH1 0x0 DUP2 MLOAD SWAP1 POP SWAP2 SWAP1 POP JUMP JUMPDEST PUSH1 0x0 DUP3 DUP3 MSTORE PUSH1 0x20 DUP3 ADD SWAP1 POP SWAP3 SWAP2 POP POP JUMP JUMPDEST PUSH1 0x0 JUMPDEST DUP4 DUP2 LT ISZERO PUSH2 0xA59 JUMPI DUP1 DUP3 ADD MLOAD DUP2 DUP5 ADD MSTORE PUSH1 0x20 DUP2 ADD SWAP1 POP PUSH2 0xA3E JUMP JUMPDEST PUSH1 0x0 DUP5 DUP5 ADD MSTORE POP POP POP POP JUMP JUMPDEST PUSH1 0x0 PUSH1 0x1F NOT PUSH1 0x1F DUP4 ADD AND SWAP1 POP SWAP2 SWAP1 POP JUMP JUMPDEST PUSH1 0x0 PUSH2 0xA81 DUP3 PUSH2 0xA1F JUMP JUMPDEST PUSH2 0xA8B DUP2 DUP6 PUSH2 0xA2A JUMP JUMPDEST SWAP4 POP PUSH2 0xA9B DUP2 DUP6 PUSH1 0x20 DUP7 ADD PUSH2 0xA3B JUMP JUMPDEST PUSH2 0xAA4 DUP2 PUSH2 0xA65 JUMP JUMPDEST DUP5 ADD SWAP2 POP POP SWAP3 SWAP2 POP POP JUMP JUMPDEST PUSH1 0x0 PUSH20 0xFFFFFFFFFFFFFFFFFFFFFFFFFFFFFFFFFFFFFFFF DUP3 AND SWAP1 POP SWAP2 SWAP1 POP JUMP JUMPDEST PUSH1 0x0 PUSH2 0xADA DUP3 PUSH2 0xAAF JUMP JUMPDEST SWAP1 POP SWAP2 SWAP1 POP JUMP JUMPDEST PUSH2 0xAEA DUP2 PUSH2 0xACF JUMP JUMPDEST DUP3 MSTORE POP POP JUMP JUMPDEST PUSH32 0x4E487B7100000000000000000000000000000000000000000000000000000000 PUSH1 0x0 MSTORE PUSH1 0x21 PUSH1 0x4 MSTORE PUSH1 0x24 PUSH1 0x0 REVERT JUMPDEST PUSH1 0x3 DUP2 LT PUSH2 0xB30 JUMPI PUSH2 0xB2F PUSH2 0xAF0 JUMP JUMPDEST JUMPDEST POP JUMP JUMPDEST PUSH1 0x0 DUP2 SWAP1 POP PUSH2 0xB41 DUP3 PUSH2 0xB1F JUMP JUMPDEST SWAP2 SWAP1 POP JUMP JUMPDEST PUSH1 0x0 PUSH2 0xB51 DUP3 PUSH2 0xB33 JUMP JUMPDEST SWAP1 POP SWAP2 SWAP1 POP JUMP JUMPDEST PUSH2 0xB61 DUP2 PUSH2 0xB46 JUMP JUMPDEST DUP3 MSTORE POP POP JUMP JUMPDEST PUSH1 0x0 DUP2 SWAP1 POP SWAP2 SWAP1 POP JUMP JUMPDEST PUSH2 0xB7A DUP2 PUSH2 0xB67 JUMP JUMPDEST DUP3 MSTORE POP POP JUMP JUMPDEST PUSH1 0x0 PUSH1 0xE0 DUP3 ADD SWAP1 POP DUP2 DUP2 SUB PUSH1 0x0 DUP4 ADD MSTORE PUSH2 0xB9A DUP2 DUP11 PUSH2 0xA76 JUMP JUMPDEST SWAP1 POP DUP2 DUP2 SUB PUSH1 0x20 DUP4 ADD MSTORE PUSH2 0xBAE DUP2 DUP10 PUSH2 0xA76 JUMP JUMPDEST SWAP1 POP DUP2 DUP2 SUB PUSH1 0x40 DUP4 ADD MSTORE PUSH2 0xBC2 DUP2 DUP9 PUSH2 0xA76 JUMP JUMPDEST SWAP1 POP PUSH2 0xBD1 PUSH1 0x60 DUP4 ADD DUP8 PUSH2 0xAE1 JUMP JUMPDEST PUSH2 0xBDE PUSH1 0x80 DUP4 ADD DUP7 PUSH2 0xB58 JUMP JUMPDEST PUSH2 0xBEB PUSH1 0xA0 DUP4 ADD DUP6 PUSH2 0xB71 JUMP JUMPDEST PUSH2 0xBF8 PUSH1 0xC0 DUP4 ADD DUP5 PUSH2 0xB71 JUMP JUMPDEST SWAP9 SWAP8 POP POP POP POP POP POP POP POP JUMP JUMPDEST PUSH32 0x4F6E6C7920746865206F776E6572000000000000000000000000000000000000 PUSH1 0x0 DUP3 ADD MSTORE POP JUMP JUMPDEST PUSH1 0x0 PUSH2 0xC3A PUSH1 0xE DUP4 PUSH2 0xA2A JUMP JUMPDEST SWAP2 POP PUSH2 0xC45 DUP3 PUSH2 0xC04 JUMP JUMPDEST PUSH1 0x20 DUP3 ADD SWAP1 POP SWAP2 SWAP1 POP JUMP JUMPDEST PUSH1 0x0 PUSH1 0x20 DUP3 ADD SWAP1 POP DUP2 DUP2 SUB PUSH1 0x0 DUP4 ADD MSTORE PUSH2 0xC69 DUP2 PUSH2 0xC2D JUMP JUMPDEST SWAP1 POP SWAP2 SWAP1 POP JUMP JUMPDEST PUSH1 0x0 PUSH1 0x20 DUP3 ADD SWAP1 POP PUSH2 0xC85 PUSH1 0x0 DUP4 ADD DUP5 PUSH2 0xB58 JUMP JUMPDEST SWAP3 SWAP2 POP POP JUMP JUMPDEST PUSH32 0x596F752063616E6E6F742072657772697465207468652073616D652073746174 PUSH1 0x0 DUP3 ADD MSTORE PUSH32 0x6500000000000000000000000000000000000000000000000000000000000000 PUSH1 0x20 DUP3 ADD MSTORE POP JUMP JUMPDEST PUSH1 0x0 PUSH2 0xCE7 PUSH1 0x21 DUP4 PUSH2 0xA2A JUMP JUMPDEST SWAP2 POP PUSH2 0xCF2 DUP3 PUSH2 0xC8B JUMP JUMPDEST PUSH1 0x40 DUP3 ADD SWAP1 POP SWAP2 SWAP1 POP JUMP JUMPDEST PUSH1 0x0 PUSH1 0x40 DUP3 ADD SWAP1 POP PUSH2 0xD12 PUSH1 0x0 DUP4 ADD DUP5 PUSH2 0xB58 JUMP JUMPDEST DUP2 DUP2 SUB PUSH1 0x20 DUP4 ADD MSTORE PUSH2 0xD23 DUP2 PUSH2 0xCDA JUMP JUMPDEST SWAP1 POP SWAP3 SWAP2 POP POP JUMP JUMPDEST PUSH32 0x596F752063616E27742066756E6420796F7572206F776E2070726F6A65637400 PUSH1 0x0 DUP3 ADD MSTORE POP JUMP JUMPDEST PUSH1 0x0 PUSH2 0xD61 PUSH1 0x1F DUP4 PUSH2 0xA2A JUMP JUMPDEST SWAP2 POP PUSH2 0xD6C DUP3 PUSH2 0xD2B JUMP JUMPDEST PUSH1 0x20 DUP3 ADD SWAP1 POP SWAP2 SWAP1 POP JUMP JUMPDEST PUSH1 0x0 PUSH1 0x20 DUP3 ADD SWAP1 POP DUP2 DUP2 SUB PUSH1 0x0 DUP4 ADD MSTORE PUSH2 0xD90 DUP2 PUSH2 0xD54 JUMP JUMPDEST SWAP1 POP SWAP2 SWAP1 POP JUMP JUMPDEST PUSH32 0x4E65656420746F2066756E64207769746820616E797468696E67000000000000 PUSH1 0x0 DUP3 ADD MSTORE POP JUMP JUMPDEST PUSH1 0x0 PUSH2 0xDCD PUSH1 0x1A DUP4 PUSH2 0xA2A JUMP JUMPDEST SWAP2 POP PUSH2 0xDD8 DUP3 PUSH2 0xD97 JUMP JUMPDEST PUSH1 0x20 DUP3 ADD SWAP1 POP SWAP2 SWAP1 POP JUMP JUMPDEST PUSH1 0x0 PUSH1 0x20 DUP3 ADD SWAP1 POP DUP2 DUP2 SUB PUSH1 0x0 DUP4 ADD MSTORE PUSH2 0xDFC DUP2 PUSH2 0xDC0 JUMP JUMPDEST SWAP1 POP SWAP2 SWAP1 POP JUMP JUMPDEST PUSH32 0x5468652070726F6A65637420686173206265656E20636C6F7365640000000000 PUSH1 0x0 DUP3 ADD MSTORE POP JUMP JUMPDEST PUSH1 0x0 PUSH2 0xE39 PUSH1 0x1B DUP4 PUSH2 0xA2A JUMP JUMPDEST SWAP2 POP PUSH2 0xE44 DUP3 PUSH2 0xE03 JUMP JUMPDEST PUSH1 0x20 DUP3 ADD SWAP1 POP SWAP2 SWAP1 POP JUMP JUMPDEST PUSH1 0x0 PUSH1 0x20 DUP3 ADD SWAP1 POP DUP2 DUP2 SUB PUSH1 0x0 DUP4 ADD MSTORE PUSH2 0xE68 DUP2 PUSH2 0xE2C JUMP JUMPDEST SWAP1 POP SWAP2 SWAP1 POP JUMP JUMPDEST PUSH32 0x5468652070726F6A656374206861732072656163686564206974732066756E64 PUSH1 0x0 DUP3 ADD MSTORE PUSH32 0x72616973696E6720676F616C0000000000000000000000000000000000000000 PUSH1 0x20 DUP3 ADD MSTORE POP JUMP JUMPDEST PUSH1 0x0 PUSH2 0xECB PUSH1 0x2C DUP4 PUSH2 0xA2A JUMP JUMPDEST SWAP2 POP PUSH2 0xED6 DUP3 PUSH2 0xE6F JUMP JUMPDEST PUSH1 0x40 DUP3 ADD SWAP1 POP SWAP2 SWAP1 POP JUMP JUMPDEST PUSH1 0x0 PUSH1 0x20 DUP3 ADD SWAP1 POP DUP2 DUP2 SUB PUSH1 0x0 DUP4 ADD MSTORE PUSH2 0xEFA DUP2 PUSH2 0xEBE JUMP JUMPDEST SWAP1 POP SWAP2 SWAP1 POP JUMP JUMPDEST PUSH32 0x4E487B7100000000000000000000000000000000000000000000000000000000 PUSH1 0x0 MSTORE PUSH1 0x11 PUSH1 0x4 MSTORE PUSH1 0x24 PUSH1 0x0 REVERT JUMPDEST PUSH1 0x0 PUSH2 0xF3B DUP3 PUSH2 0xB67 JUMP JUMPDEST SWAP2 POP PUSH2 0xF46 DUP4 PUSH2 0xB67 JUMP JUMPDEST SWAP3 POP DUP3 DUP3 ADD SWAP1 POP DUP1 DUP3 GT ISZERO PUSH2 0xF5E JUMPI PUSH2 0xF5D PUSH2 0xF01 JUMP JUMPDEST JUMPDEST SWAP3 SWAP2 POP POP JUMP JUMPDEST PUSH32 0x4E487B7100000000000000000000000000000000000000000000000000000000 PUSH1 0x0 MSTORE PUSH1 0x22 PUSH1 0x4 MSTORE PUSH1 0x24 PUSH1 0x0 REVERT JUMPDEST PUSH1 0x0 PUSH1 0x2 DUP3 DIV SWAP1 POP PUSH1 0x1 DUP3 AND DUP1 PUSH2 0xFAB JUMPI PUSH1 0x7F DUP3 AND SWAP2 POP JUMPDEST PUSH1 0x20 DUP3 LT DUP2 SUB PUSH2 0xFBE JUMPI PUSH2 0xFBD PUSH2 0xF64 JUMP JUMPDEST JUMPDEST POP SWAP2 SWAP1 POP JUMP JUMPDEST PUSH1 0x0 DUP2 SWAP1 POP DUP2 PUSH1 0x0 MSTORE PUSH1 0x20 PUSH1 0x0 KECCAK256 SWAP1 POP SWAP2 SWAP1 POP JUMP JUMPDEST PUSH1 0x0 DUP2 SLOAD PUSH2 0xFE6 DUP2 PUSH2 0xF93 JUMP JUMPDEST PUSH2 0xFF0 DUP2 DUP7 PUSH2 0xA2A JUMP JUMPDEST SWAP5 POP PUSH1 0x1 DUP3 AND PUSH1 0x0 DUP2 EQ PUSH2 0x100B JUMPI PUSH1 0x1 DUP2 EQ PUSH2 0x1021 JUMPI PUSH2 0x1054 JUMP JUMPDEST PUSH1 0xFF NOT DUP4 AND DUP7 MSTORE DUP2 ISZERO ISZERO PUSH1 0x20 MUL DUP7 ADD SWAP4 POP PUSH2 0x1054 JUMP JUMPDEST PUSH2 0x102A DUP6 PUSH2 0xFC4 JUMP JUMPDEST PUSH1 0x0 JUMPDEST DUP4 DUP2 LT ISZERO PUSH2 0x104C JUMPI DUP2 SLOAD DUP2 DUP10 ADD MSTORE PUSH1 0x1 DUP3 ADD SWAP2 POP PUSH1 0x20 DUP2 ADD SWAP1 POP PUSH2 0x102D JUMP JUMPDEST DUP1 DUP9 ADD SWAP6 POP POP POP JUMPDEST POP POP POP SWAP3 SWAP2 POP POP JUMP JUMPDEST PUSH1 0x0 PUSH1 0x40 DUP3 ADD SWAP1 POP DUP2 DUP2 SUB PUSH1 0x0 DUP4 ADD MSTORE PUSH2 0x1077 DUP2 DUP6 PUSH2 0xFD9 JUMP JUMPDEST SWAP1 POP PUSH2 0x1086 PUSH1 0x20 DUP4 ADD DUP5 PUSH2 0xB71 JUMP JUMPDEST SWAP4 SWAP3 POP POP POP JUMP JUMPDEST PUSH1 0x0 PUSH1 0x40 DUP3 ADD SWAP1 POP PUSH2 0x10A2 PUSH1 0x0 DUP4 ADD DUP6 PUSH2 0xB71 JUMP JUMPDEST PUSH2 0x10AF PUSH1 0x20 DUP4 ADD DUP5 PUSH2 0xB58 JUMP JUMPDEST SWAP4 SWAP3 POP POP POP JUMP JUMPDEST PUSH32 0x5468652066756E6472616973696E6720676F616C20686173206E6F7420626565 PUSH1 0x0 DUP3 ADD MSTORE PUSH32 0x6E20726561636865640000000000000000000000000000000000000000000000 PUSH1 0x20 DUP3 ADD MSTORE POP JUMP JUMPDEST PUSH1 0x0 PUSH2 0x1112 PUSH1 0x29 DUP4 PUSH2 0xA2A JUMP JUMPDEST SWAP2 POP PUSH2 0x111D DUP3 PUSH2 0x10B6 JUMP JUMPDEST PUSH1 0x40 DUP3 ADD SWAP1 POP SWAP2 SWAP1 POP JUMP JUMPDEST PUSH1 0x0 PUSH1 0x20 DUP3 ADD SWAP1 POP DUP2 DUP2 SUB PUSH1 0x0 DUP4 ADD MSTORE PUSH2 0x1141 DUP2 PUSH2 0x1105 JUMP JUMPDEST SWAP1 POP SWAP2 SWAP1 POP JUMP JUMPDEST PUSH32 0x5468652070726F6A656374206973206E6F74206F70656E000000000000000000 PUSH1 0x0 DUP3 ADD MSTORE POP JUMP JUMPDEST PUSH1 0x0 PUSH2 0x117E PUSH1 0x17 DUP4 PUSH2 0xA2A JUMP JUMPDEST SWAP2 POP PUSH2 0x1189 DUP3 PUSH2 0x1148 JUMP JUMPDEST PUSH1 0x20 DUP3 ADD SWAP1 POP SWAP2 SWAP1 POP JUMP JUMPDEST PUSH1 0x0 PUSH1 0x20 DUP3 ADD SWAP1 POP DUP2 DUP2 SUB PUSH1 0x0 DUP4 ADD MSTORE PUSH2 0x11AD DUP2 PUSH2 0x1171 JUMP JUMPDEST SWAP1 POP SWAP2 SWAP1 POP JUMP INVALID LOG2 PUSH5 0x6970667358 0x22 SLT KECCAK256 PC SWAP6 DUP14 0xBF 0xD7 0xCC 0xAF PUSH19 0x48C9CD788D0686CFEA695FF0415B83AF4E8D4C 0x29 0xE4 0x4A SHL 0x5C PUSH5 0x736F6C6343 STOP ADDMOD GT STOP CALLER "
		},
		"gasEstimates": {
			"creation": {
				"codeDepositCost": "917200",
				"executionCost": "infinite",
				"totalCost": "infinite"
			},
			"external": {
				"changeProjectState(uint8)": "32616",
				"closeProject()": "36668",
				"fundProject()": "infinite",
				"project()": "infinite"
			}
		},
		"methodIdentifiers": {
			"changeProjectState(uint8)": "5699fadc",
			"closeProject()": "d8b9182b",
			"fundProject()": "d63dc661",
			"project()": "f60ca60d"
		}
	},
	"abi": [
		{
			"inputs": [
				{
					"internalType": "string",
					"name": "_id",
					"type": "string"
				},
				{
					"internalType": "string",
					"name": "_name",
					"type": "string"
				},
				{
					"internalType": "string",
					"name": "_description",
					"type": "string"
				},
				{
					"internalType": "uint256",
					"name": "_fundraisingGoal",
					"type": "uint256"
				}
			],
			"stateMutability": "nonpayable",
			"type": "constructor"
		},
		{
			"inputs": [
				{
					"internalType": "enum Crowfunding.State",
					"name": "state",
					"type": "uint8"
				},
				{
					"internalType": "string",
					"name": "message",
					"type": "string"
				}
			],
			"name": "StateError",
			"type": "error"
		},
		{
			"inputs": [
				{
					"internalType": "uint256",
					"name": "value",
					"type": "uint256"
				},
				{
					"internalType": "enum Crowfunding.State",
					"name": "state",
					"type": "uint8"
				}
			],
			"name": "ValueOrStateNotValid",
			"type": "error"
		},
		{
			"anonymous": false,
			"inputs": [
				{
					"indexed": false,
					"internalType": "enum Crowfunding.State",
					"name": "newState",
					"type": "uint8"
				}
			],
			"name": "ChangeProjectState",
			"type": "event"
		},
		{
			"anonymous": false,
			"inputs": [
				{
					"indexed": false,
					"internalType": "string",
					"name": "id",
					"type": "string"
				},
				{
					"indexed": false,
					"internalType": "uint256",
					"name": "value",
					"type": "uint256"
				}
			],
			"name": "FundProject",
			"type": "event"
		},
		{
			"inputs": [
				{
					"internalType": "enum Crowfunding.State",
					"name": "newState",
					"type": "uint8"
				}
			],
			"name": "changeProjectState",
			"outputs": [],
			"stateMutability": "nonpayable",
			"type": "function"
		},
		{
			"inputs": [],
			"name": "closeProject",
			"outputs": [],
			"stateMutability": "nonpayable",
			"type": "function"
		},
		{
			"inputs": [],
			"name": "fundProject",
			"outputs": [],
			"stateMutability": "payable",
			"type": "function"
		},
		{
			"inputs": [],
			"name": "project",
			"outputs": [
				{
					"internalType": "string",
					"name": "id",
					"type": "string"
				},
				{
					"internalType": "string",
					"name": "name",
					"type": "string"
				},
				{
					"internalType": "string",
					"name": "description",
					"type": "string"
				},
				{
					"internalType": "address payable",
					"name": "author",
					"type": "address"
				},
				{
					"internalType": "enum Crowfunding.State",
					"name": "state",
					"type": "uint8"
				},
				{
					"internalType": "uint256",
					"name": "funds",
					"type": "uint256"
				},
				{
					"internalType": "uint256",
					"name": "fundraisingGoal",
					"type": "uint256"
				}
			],
			"stateMutability": "view",
			"type": "function"
		}
	]
}