{
	"data": {
		"bytecode": {
			"linkReferences": {},
			"object": "608060405234801561001057600080fd5b50612112806100206000396000f3fe6080604052600436106100705760003560e01c80633bcff3b01161004e5780633bcff3b0146101245780636c563abe1461014f5780637f3fcdd91461016b578063d14ce3b9146101a957610070565b80631016e36d14610075578063107046bd146100b85780631ca73896146100fb575b600080fd5b34801561008157600080fd5b5061009c60048036038101906100979190611036565b6101d2565b6040516100af97969594939291906111e4565b60405180910390f35b3480156100c457600080fd5b506100df60048036038101906100da9190611294565b61058b565b6040516100f297969594939291906112e2565b60405180910390f35b34801561010757600080fd5b50610122600480360381019061011d9190611366565b6107a2565b005b34801561013057600080fd5b50610139610a5a565b604051610146919061142f565b60405180910390f35b61016960048036038101906101649190611294565b610a66565b005b34801561017757600080fd5b50610192600480360381019061018d919061157a565b610d88565b6040516101a09291906115d6565b60405180910390f35b3480156101b557600080fd5b506101d060048036038101906101cb9190611624565b610dff565b005b606080606060008060008060005b6000805490508110156105435789896040516101fd929190611694565b604051809103902060008281548110610219576102186116ad565b5b906000526020600020906006020160000160405161023791906117d4565b6040518091039020036105305760008181548110610258576102576116ad565b5b90600052602060002090600602016000016000828154811061027d5761027c6116ad565b5b9060005260206000209060060201600101600083815481106102a2576102a16116ad565b5b9060005260206000209060060201600201600084815481106102c7576102c66116ad565b5b906000526020600020906006020160030160009054906101000a900473ffffffffffffffffffffffffffffffffffffffff166000858154811061030d5761030c6116ad565b5b906000526020600020906006020160030160149054906101000a900460ff16600086815481106103405761033f6116ad565b5b90600052602060002090600602016004015460008781548110610366576103656116ad565b5b9060005260206000209060060201600501548680546103849061170b565b80601f01602080910402602001604051908101604052809291908181526020018280546103b09061170b565b80156103fd5780601f106103d2576101008083540402835291602001916103fd565b820191906000526020600020905b8154815290600101906020018083116103e057829003601f168201915b505050505096508580546104109061170b565b80601f016020809104026020016040519081016040528092919081815260200182805461043c9061170b565b80156104895780601f1061045e57610100808354040283529160200191610489565b820191906000526020600020905b81548152906001019060200180831161046c57829003601f168201915b5050505050955084805461049c9061170b565b80601f01602080910402602001604051908101604052809291908181526020018280546104c89061170b565b80156105155780601f106104ea57610100808354040283529160200191610515565b820191906000526020600020905b8154815290600101906020018083116104f857829003601f168201915b5050505050945097509750975097509750975097505061057f565b808061053b9061181a565b9150506101e0565b506040517f08c379a0000000000000000000000000000000000000000000000000000000008152600401610576906118ae565b60405180910390fd5b92959891949750929550565b6000818154811061059b57600080fd5b90600052602060002090600602016000915090508060000180546105be9061170b565b80601f01602080910402602001604051908101604052809291908181526020018280546105ea9061170b565b80156106375780601f1061060c57610100808354040283529160200191610637565b820191906000526020600020905b81548152906001019060200180831161061a57829003601f168201915b50505050509080600101805461064c9061170b565b80601f01602080910402602001604051908101604052809291908181526020018280546106789061170b565b80156106c55780601f1061069a576101008083540402835291602001916106c5565b820191906000526020600020905b8154815290600101906020018083116106a857829003601f168201915b5050505050908060020180546106da9061170b565b80601f01602080910402602001604051908101604052809291908181526020018280546107069061170b565b80156107535780601f1061072857610100808354040283529160200191610753565b820191906000526020600020905b81548152906001019060200180831161073657829003601f168201915b5050505050908060030160009054906101000a900473ffffffffffffffffffffffffffffffffffffffff16908060030160149054906101000a900460ff16908060040154908060050154905087565b600081116107e5576040517f08c379a00000000000000000000000000000000000000000000000000000000081526004016107dc90611940565b60405180910390fd5b60006040518060e0016040528089898080601f016020809104026020016040519081016040528093929190818152602001838380828437600081840152601f19601f82011690508083019250505050505050815260200187878080601f016020809104026020016040519081016040528093929190818152602001838380828437600081840152601f19601f82011690508083019250505050505050815260200185858080601f016020809104026020016040519081016040528093929190818152602001838380828437600081840152601f19601f8201169050808301925050505050505081526020013373ffffffffffffffffffffffffffffffffffffffff16815260200160006001811115610900576108ff611154565b5b815260200160008152602001838152509050600081908060018154018082558091505060019003906000526020600020906006020160009091909190915060008201518160000190816109539190611b0c565b5060208201518160010190816109699190611b0c565b50604082015181600201908161097f9190611b0c565b5060608201518160030160006101000a81548173ffffffffffffffffffffffffffffffffffffffff021916908373ffffffffffffffffffffffffffffffffffffffff16021790555060808201518160030160146101000a81548160ff021916908360018111156109f2576109f1611154565b5b021790555060a0820151816004015560c0820151816005015550507f472657fb15180beb1548b31adee57ada1efa0dbd19d25622c6f1a27d0c97c23788888888888888604051610a489796959493929190611c0b565b60405180910390a15050505050505050565b60008080549050905090565b803373ffffffffffffffffffffffffffffffffffffffff1660008281548110610a9257610a916116ad565b5b906000526020600020906006020160030160009054906101000a900473ffffffffffffffffffffffffffffffffffffffff1673ffffffffffffffffffffffffffffffffffffffff1603610b1a576040517f08c379a0000000000000000000000000000000000000000000000000000000008152600401610b1190611cdd565b60405180910390fd5b6000808381548110610b2f57610b2e6116ad565b5b90600052602060002090600602019050600180811115610b5257610b51611154565b5b8160030160149054906101000a900460ff166001811115610b7657610b75611154565b5b03610bb6576040517f08c379a0000000000000000000000000000000000000000000000000000000008152600401610bad90611d6f565b60405180910390fd5b60003411610bf9576040517f08c379a0000000000000000000000000000000000000000000000000000000008152600401610bf090611e01565b60405180910390fd5b8060030160009054906101000a900473ffffffffffffffffffffffffffffffffffffffff1673ffffffffffffffffffffffffffffffffffffffff166108fc349081150290604051600060405180830381858888f19350505050158015610c63573d6000803e3d6000fd5b5034816004016000828254610c789190611e21565b92505081905550600181600001604051610c929190611ee3565b908152602001604051809103902060405180604001604052803373ffffffffffffffffffffffffffffffffffffffff16815260200134815250908060018154018082558091505060019003906000526020600020906002020160009091909190915060008201518160000160006101000a81548173ffffffffffffffffffffffffffffffffffffffff021916908373ffffffffffffffffffffffffffffffffffffffff1602179055506020820151816001015550507f925c00924682e835f48a31e5b83cb323934f40a811c5a8f44a662915035033c68160000134604051610d7b929190611f7e565b60405180910390a1505050565b6001828051602081018201805184825260208301602085012081835280955050505050508181548110610dba57600080fd5b9060005260206000209060020201600091509150508060000160009054906101000a900473ffffffffffffffffffffffffffffffffffffffff16908060010154905082565b803373ffffffffffffffffffffffffffffffffffffffff1660008281548110610e2b57610e2a6116ad565b5b906000526020600020906006020160030160009054906101000a900473ffffffffffffffffffffffffffffffffffffffff1673ffffffffffffffffffffffffffffffffffffffff1614610eb3576040517f08c379a0000000000000000000000000000000000000000000000000000000008152600401610eaa90612020565b60405180910390fd5b6000808381548110610ec857610ec76116ad565b5b90600052602060002090600602019050836001811115610eeb57610eea611154565b5b8160030160149054906101000a900460ff166001811115610f0f57610f0e611154565b5b03610f4f576040517f08c379a0000000000000000000000000000000000000000000000000000000008152600401610f469061208c565b60405180910390fd5b838160030160146101000a81548160ff02191690836001811115610f7657610f75611154565b5b02179055507fd63742463cd36bb1dedcfdcdedc4f9a6fdeaf7c80d9e702884e6b373ecb51f1d8160000185604051610faf9291906120ac565b60405180910390a150505050565b6000604051905090565b600080fd5b600080fd5b600080fd5b600080fd5b600080fd5b60008083601f840112610ff657610ff5610fd1565b5b8235905067ffffffffffffffff81111561101357611012610fd6565b5b60208301915083600182028301111561102f5761102e610fdb565b5b9250929050565b6000806020838503121561104d5761104c610fc7565b5b600083013567ffffffffffffffff81111561106b5761106a610fcc565b5b61107785828601610fe0565b92509250509250929050565b600081519050919050565b600082825260208201905092915050565b60005b838110156110bd5780820151818401526020810190506110a2565b60008484015250505050565b6000601f19601f8301169050919050565b60006110e582611083565b6110ef818561108e565b93506110ff81856020860161109f565b611108816110c9565b840191505092915050565b600073ffffffffffffffffffffffffffffffffffffffff82169050919050565b600061113e82611113565b9050919050565b61114e81611133565b82525050565b7f4e487b7100000000000000000000000000000000000000000000000000000000600052602160045260246000fd5b6002811061119457611193611154565b5b50565b60008190506111a582611183565b919050565b60006111b582611197565b9050919050565b6111c5816111aa565b82525050565b6000819050919050565b6111de816111cb565b82525050565b600060e08201905081810360008301526111fe818a6110da565b9050818103602083015261121281896110da565b9050818103604083015261122681886110da565b90506112356060830187611145565b61124260808301866111bc565b61124f60a08301856111d5565b61125c60c08301846111d5565b98975050505050505050565b611271816111cb565b811461127c57600080fd5b50565b60008135905061128e81611268565b92915050565b6000602082840312156112aa576112a9610fc7565b5b60006112b88482850161127f565b91505092915050565b60006112cc82611113565b9050919050565b6112dc816112c1565b82525050565b600060e08201905081810360008301526112fc818a6110da565b9050818103602083015261131081896110da565b9050818103604083015261132481886110da565b905061133360608301876112d3565b61134060808301866111bc565b61134d60a08301856111d5565b61135a60c08301846111d5565b98975050505050505050565b60008060008060008060006080888a03121561138557611384610fc7565b5b600088013567ffffffffffffffff8111156113a3576113a2610fcc565b5b6113af8a828b01610fe0565b9750975050602088013567ffffffffffffffff8111156113d2576113d1610fcc565b5b6113de8a828b01610fe0565b9550955050604088013567ffffffffffffffff81111561140157611400610fcc565b5b61140d8a828b01610fe0565b935093505060606114208a828b0161127f565b91505092959891949750929550565b600060208201905061144460008301846111d5565b92915050565b600080fd5b7f4e487b7100000000000000000000000000000000000000000000000000000000600052604160045260246000fd5b611487826110c9565b810181811067ffffffffffffffff821117156114a6576114a561144f565b5b80604052505050565b60006114b9610fbd565b90506114c5828261147e565b919050565b600067ffffffffffffffff8211156114e5576114e461144f565b5b6114ee826110c9565b9050602081019050919050565b82818337600083830152505050565b600061151d611518846114ca565b6114af565b9050828152602081018484840111156115395761153861144a565b5b6115448482856114fb565b509392505050565b600082601f83011261156157611560610fd1565b5b813561157184826020860161150a565b91505092915050565b6000806040838503121561159157611590610fc7565b5b600083013567ffffffffffffffff8111156115af576115ae610fcc565b5b6115bb8582860161154c565b92505060206115cc8582860161127f565b9150509250929050565b60006040820190506115eb6000830185611145565b6115f860208301846111d5565b9392505050565b6002811061160c57600080fd5b50565b60008135905061161e816115ff565b92915050565b6000806040838503121561163b5761163a610fc7565b5b60006116498582860161160f565b925050602061165a8582860161127f565b9150509250929050565b600081905092915050565b600061167b8385611664565b93506116888385846114fb565b82840190509392505050565b60006116a182848661166f565b91508190509392505050565b7f4e487b7100000000000000000000000000000000000000000000000000000000600052603260045260246000fd5b7f4e487b7100000000000000000000000000000000000000000000000000000000600052602260045260246000fd5b6000600282049050600182168061172357607f821691505b602082108103611736576117356116dc565b5b50919050565b60008190508160005260206000209050919050565b6000815461175e8161170b565b6117688186611664565b945060018216600081146117835760018114611798576117cb565b60ff19831686528115158202860193506117cb565b6117a18561173c565b60005b838110156117c3578154818901526001820191506020810190506117a4565b838801955050505b50505092915050565b60006117e08284611751565b915081905092915050565b7f4e487b7100000000000000000000000000000000000000000000000000000000600052601160045260246000fd5b6000611825826111cb565b91507fffffffffffffffffffffffffffffffffffffffffffffffffffffffffffffffff8203611857576118566117eb565b5b600182019050919050565b7f50726f6a656374206e6f7420666f756e64000000000000000000000000000000600082015250565b600061189860118361108e565b91506118a382611862565b602082019050919050565b600060208201905081810360008301526118c78161188b565b9050919050565b7f66756e6472616973696e6720676f616c206d757374206265206772656174657260008201527f207468616e203000000000000000000000000000000000000000000000000000602082015250565b600061192a60278361108e565b9150611935826118ce565b604082019050919050565b600060208201905081810360008301526119598161191d565b9050919050565b60008190508160005260206000209050919050565b60006020601f8301049050919050565b600082821b905092915050565b6000600883026119c27fffffffffffffffffffffffffffffffffffffffffffffffffffffffffffffffff82611985565b6119cc8683611985565b95508019841693508086168417925050509392505050565b6000819050919050565b6000611a09611a046119ff846111cb565b6119e4565b6111cb565b9050919050565b6000819050919050565b611a23836119ee565b611a37611a2f82611a10565b848454611992565b825550505050565b600090565b611a4c611a3f565b611a57818484611a1a565b505050565b5b81811015611a7b57611a70600082611a44565b600181019050611a5d565b5050565b601f821115611ac057611a9181611960565b611a9a84611975565b81016020851015611aa9578190505b611abd611ab585611975565b830182611a5c565b50505b505050565b600082821c905092915050565b6000611ae360001984600802611ac5565b1980831691505092915050565b6000611afc8383611ad2565b9150826002028217905092915050565b611b1582611083565b67ffffffffffffffff811115611b2e57611b2d61144f565b5b611b38825461170b565b611b43828285611a7f565b600060209050601f831160018114611b765760008415611b64578287015190505b611b6e8582611af0565b865550611bd6565b601f198416611b8486611960565b60005b82811015611bac57848901518255600182019150602085019450602081019050611b87565b86831015611bc95784890151611bc5601f891682611ad2565b8355505b6001600288020188555050505b505050505050565b6000611bea838561108e565b9350611bf78385846114fb565b611c00836110c9565b840190509392505050565b60006080820190508181036000830152611c2681898b611bde565b90508181036020830152611c3b818789611bde565b90508181036040830152611c50818587611bde565b9050611c5f60608301846111d5565b98975050505050505050565b7f417320617574686f7220796f752063616e206e6f742066756e6420796f75722060008201527f6f776e2070726f6a656374000000000000000000000000000000000000000000602082015250565b6000611cc7602b8361108e565b9150611cd282611c6b565b604082019050919050565b60006020820190508181036000830152611cf681611cba565b9050919050565b7f5468652070726f6a6563742063616e206e6f7420726563656976652066756e6460008201527f7300000000000000000000000000000000000000000000000000000000000000602082015250565b6000611d5960218361108e565b9150611d6482611cfd565b604082019050919050565b60006020820190508181036000830152611d8881611d4c565b9050919050565b7f46756e642076616c7565206d7573742062652067726561746572207468616e2060008201527f3000000000000000000000000000000000000000000000000000000000000000602082015250565b6000611deb60218361108e565b9150611df682611d8f565b604082019050919050565b60006020820190508181036000830152611e1a81611dde565b9050919050565b6000611e2c826111cb565b9150611e37836111cb565b9250828201905080821115611e4f57611e4e6117eb565b5b92915050565b600081905092915050565b60008154611e6d8161170b565b611e778186611e55565b94506001821660008114611e925760018114611ea757611eda565b60ff1983168652811515820286019350611eda565b611eb085611960565b60005b83811015611ed257815481890152600182019150602081019050611eb3565b838801955050505b50505092915050565b6000611eef8284611e60565b915081905092915050565b60008154611f078161170b565b611f11818661108e565b94506001821660008114611f2c5760018114611f4257611f75565b60ff198316865281151560200286019350611f75565b611f4b85611960565b60005b83811015611f6d57815481890152600182019150602081019050611f4e565b808801955050505b50505092915050565b60006040820190508181036000830152611f988185611efa565b9050611fa760208301846111d5565b9392505050565b7f596f75206e65656420746f206265207468652070726f6a65637420617574686f60008201527f7200000000000000000000000000000000000000000000000000000000000000602082015250565b600061200a60218361108e565b915061201582611fae565b604082019050919050565b6000602082019050818103600083015261203981611ffd565b9050919050565b7f4e6577207374617465206d75737420626520646966666572656e740000000000600082015250565b6000612076601b8361108e565b915061208182612040565b602082019050919050565b600060208201905081810360008301526120a581612069565b9050919050565b600060408201905081810360008301526120c68185611efa565b90506120d560208301846111bc565b939250505056fea26469706673582212207787315c1955bcd441ba5baab31dd8491389570173c16d289cde1c261ed95a1464736f6c63430008110033",
			"opcodes": "PUSH1 0x80 PUSH1 0x40 MSTORE CALLVALUE DUP1 ISZERO PUSH2 0x10 JUMPI PUSH1 0x0 DUP1 REVERT JUMPDEST POP PUSH2 0x2112 DUP1 PUSH2 0x20 PUSH1 0x0 CODECOPY PUSH1 0x0 RETURN INVALID PUSH1 0x80 PUSH1 0x40 MSTORE PUSH1 0x4 CALLDATASIZE LT PUSH2 0x70 JUMPI PUSH1 0x0 CALLDATALOAD PUSH1 0xE0 SHR DUP1 PUSH4 0x3BCFF3B0 GT PUSH2 0x4E JUMPI DUP1 PUSH4 0x3BCFF3B0 EQ PUSH2 0x124 JUMPI DUP1 PUSH4 0x6C563ABE EQ PUSH2 0x14F JUMPI DUP1 PUSH4 0x7F3FCDD9 EQ PUSH2 0x16B JUMPI DUP1 PUSH4 0xD14CE3B9 EQ PUSH2 0x1A9 JUMPI PUSH2 0x70 JUMP JUMPDEST DUP1 PUSH4 0x1016E36D EQ PUSH2 0x75 JUMPI DUP1 PUSH4 0x107046BD EQ PUSH2 0xB8 JUMPI DUP1 PUSH4 0x1CA73896 EQ PUSH2 0xFB JUMPI JUMPDEST PUSH1 0x0 DUP1 REVERT JUMPDEST CALLVALUE DUP1 ISZERO PUSH2 0x81 JUMPI PUSH1 0x0 DUP1 REVERT JUMPDEST POP PUSH2 0x9C PUSH1 0x4 DUP1 CALLDATASIZE SUB DUP2 ADD SWAP1 PUSH2 0x97 SWAP2 SWAP1 PUSH2 0x1036 JUMP JUMPDEST PUSH2 0x1D2 JUMP JUMPDEST PUSH1 0x40 MLOAD PUSH2 0xAF SWAP8 SWAP7 SWAP6 SWAP5 SWAP4 SWAP3 SWAP2 SWAP1 PUSH2 0x11E4 JUMP JUMPDEST PUSH1 0x40 MLOAD DUP1 SWAP2 SUB SWAP1 RETURN JUMPDEST CALLVALUE DUP1 ISZERO PUSH2 0xC4 JUMPI PUSH1 0x0 DUP1 REVERT JUMPDEST POP PUSH2 0xDF PUSH1 0x4 DUP1 CALLDATASIZE SUB DUP2 ADD SWAP1 PUSH2 0xDA SWAP2 SWAP1 PUSH2 0x1294 JUMP JUMPDEST PUSH2 0x58B JUMP JUMPDEST PUSH1 0x40 MLOAD PUSH2 0xF2 SWAP8 SWAP7 SWAP6 SWAP5 SWAP4 SWAP3 SWAP2 SWAP1 PUSH2 0x12E2 JUMP JUMPDEST PUSH1 0x40 MLOAD DUP1 SWAP2 SUB SWAP1 RETURN JUMPDEST CALLVALUE DUP1 ISZERO PUSH2 0x107 JUMPI PUSH1 0x0 DUP1 REVERT JUMPDEST POP PUSH2 0x122 PUSH1 0x4 DUP1 CALLDATASIZE SUB DUP2 ADD SWAP1 PUSH2 0x11D SWAP2 SWAP1 PUSH2 0x1366 JUMP JUMPDEST PUSH2 0x7A2 JUMP JUMPDEST STOP JUMPDEST CALLVALUE DUP1 ISZERO PUSH2 0x130 JUMPI PUSH1 0x0 DUP1 REVERT JUMPDEST POP PUSH2 0x139 PUSH2 0xA5A JUMP JUMPDEST PUSH1 0x40 MLOAD PUSH2 0x146 SWAP2 SWAP1 PUSH2 0x142F JUMP JUMPDEST PUSH1 0x40 MLOAD DUP1 SWAP2 SUB SWAP1 RETURN JUMPDEST PUSH2 0x169 PUSH1 0x4 DUP1 CALLDATASIZE SUB DUP2 ADD SWAP1 PUSH2 0x164 SWAP2 SWAP1 PUSH2 0x1294 JUMP JUMPDEST PUSH2 0xA66 JUMP JUMPDEST STOP JUMPDEST CALLVALUE DUP1 ISZERO PUSH2 0x177 JUMPI PUSH1 0x0 DUP1 REVERT JUMPDEST POP PUSH2 0x192 PUSH1 0x4 DUP1 CALLDATASIZE SUB DUP2 ADD SWAP1 PUSH2 0x18D SWAP2 SWAP1 PUSH2 0x157A JUMP JUMPDEST PUSH2 0xD88 JUMP JUMPDEST PUSH1 0x40 MLOAD PUSH2 0x1A0 SWAP3 SWAP2 SWAP1 PUSH2 0x15D6 JUMP JUMPDEST PUSH1 0x40 MLOAD DUP1 SWAP2 SUB SWAP1 RETURN JUMPDEST CALLVALUE DUP1 ISZERO PUSH2 0x1B5 JUMPI PUSH1 0x0 DUP1 REVERT JUMPDEST POP PUSH2 0x1D0 PUSH1 0x4 DUP1 CALLDATASIZE SUB DUP2 ADD SWAP1 PUSH2 0x1CB SWAP2 SWAP1 PUSH2 0x1624 JUMP JUMPDEST PUSH2 0xDFF JUMP JUMPDEST STOP JUMPDEST PUSH1 0x60 DUP1 PUSH1 0x60 PUSH1 0x0 DUP1 PUSH1 0x0 DUP1 PUSH1 0x0 JUMPDEST PUSH1 0x0 DUP1 SLOAD SWAP1 POP DUP2 LT ISZERO PUSH2 0x543 JUMPI DUP10 DUP10 PUSH1 0x40 MLOAD PUSH2 0x1FD SWAP3 SWAP2 SWAP1 PUSH2 0x1694 JUMP JUMPDEST PUSH1 0x40 MLOAD DUP1 SWAP2 SUB SWAP1 KECCAK256 PUSH1 0x0 DUP3 DUP2 SLOAD DUP2 LT PUSH2 0x219 JUMPI PUSH2 0x218 PUSH2 0x16AD JUMP JUMPDEST JUMPDEST SWAP1 PUSH1 0x0 MSTORE PUSH1 0x20 PUSH1 0x0 KECCAK256 SWAP1 PUSH1 0x6 MUL ADD PUSH1 0x0 ADD PUSH1 0x40 MLOAD PUSH2 0x237 SWAP2 SWAP1 PUSH2 0x17D4 JUMP JUMPDEST PUSH1 0x40 MLOAD DUP1 SWAP2 SUB SWAP1 KECCAK256 SUB PUSH2 0x530 JUMPI PUSH1 0x0 DUP2 DUP2 SLOAD DUP2 LT PUSH2 0x258 JUMPI PUSH2 0x257 PUSH2 0x16AD JUMP JUMPDEST JUMPDEST SWAP1 PUSH1 0x0 MSTORE PUSH1 0x20 PUSH1 0x0 KECCAK256 SWAP1 PUSH1 0x6 MUL ADD PUSH1 0x0 ADD PUSH1 0x0 DUP3 DUP2 SLOAD DUP2 LT PUSH2 0x27D JUMPI PUSH2 0x27C PUSH2 0x16AD JUMP JUMPDEST JUMPDEST SWAP1 PUSH1 0x0 MSTORE PUSH1 0x20 PUSH1 0x0 KECCAK256 SWAP1 PUSH1 0x6 MUL ADD PUSH1 0x1 ADD PUSH1 0x0 DUP4 DUP2 SLOAD DUP2 LT PUSH2 0x2A2 JUMPI PUSH2 0x2A1 PUSH2 0x16AD JUMP JUMPDEST JUMPDEST SWAP1 PUSH1 0x0 MSTORE PUSH1 0x20 PUSH1 0x0 KECCAK256 SWAP1 PUSH1 0x6 MUL ADD PUSH1 0x2 ADD PUSH1 0x0 DUP5 DUP2 SLOAD DUP2 LT PUSH2 0x2C7 JUMPI PUSH2 0x2C6 PUSH2 0x16AD JUMP JUMPDEST JUMPDEST SWAP1 PUSH1 0x0 MSTORE PUSH1 0x20 PUSH1 0x0 KECCAK256 SWAP1 PUSH1 0x6 MUL ADD PUSH1 0x3 ADD PUSH1 0x0 SWAP1 SLOAD SWAP1 PUSH2 0x100 EXP SWAP1 DIV PUSH20 0xFFFFFFFFFFFFFFFFFFFFFFFFFFFFFFFFFFFFFFFF AND PUSH1 0x0 DUP6 DUP2 SLOAD DUP2 LT PUSH2 0x30D JUMPI PUSH2 0x30C PUSH2 0x16AD JUMP JUMPDEST JUMPDEST SWAP1 PUSH1 0x0 MSTORE PUSH1 0x20 PUSH1 0x0 KECCAK256 SWAP1 PUSH1 0x6 MUL ADD PUSH1 0x3 ADD PUSH1 0x14 SWAP1 SLOAD SWAP1 PUSH2 0x100 EXP SWAP1 DIV PUSH1 0xFF AND PUSH1 0x0 DUP7 DUP2 SLOAD DUP2 LT PUSH2 0x340 JUMPI PUSH2 0x33F PUSH2 0x16AD JUMP JUMPDEST JUMPDEST SWAP1 PUSH1 0x0 MSTORE PUSH1 0x20 PUSH1 0x0 KECCAK256 SWAP1 PUSH1 0x6 MUL ADD PUSH1 0x4 ADD SLOAD PUSH1 0x0 DUP8 DUP2 SLOAD DUP2 LT PUSH2 0x366 JUMPI PUSH2 0x365 PUSH2 0x16AD JUMP JUMPDEST JUMPDEST SWAP1 PUSH1 0x0 MSTORE PUSH1 0x20 PUSH1 0x0 KECCAK256 SWAP1 PUSH1 0x6 MUL ADD PUSH1 0x5 ADD SLOAD DUP7 DUP1 SLOAD PUSH2 0x384 SWAP1 PUSH2 0x170B JUMP JUMPDEST DUP1 PUSH1 0x1F ADD PUSH1 0x20 DUP1 SWAP2 DIV MUL PUSH1 0x20 ADD PUSH1 0x40 MLOAD SWAP1 DUP2 ADD PUSH1 0x40 MSTORE DUP1 SWAP3 SWAP2 SWAP1 DUP2 DUP2 MSTORE PUSH1 0x20 ADD DUP3 DUP1 SLOAD PUSH2 0x3B0 SWAP1 PUSH2 0x170B JUMP JUMPDEST DUP1 ISZERO PUSH2 0x3FD JUMPI DUP1 PUSH1 0x1F LT PUSH2 0x3D2 JUMPI PUSH2 0x100 DUP1 DUP4 SLOAD DIV MUL DUP4 MSTORE SWAP2 PUSH1 0x20 ADD SWAP2 PUSH2 0x3FD JUMP JUMPDEST DUP3 ADD SWAP2 SWAP1 PUSH1 0x0 MSTORE PUSH1 0x20 PUSH1 0x0 KECCAK256 SWAP1 JUMPDEST DUP2 SLOAD DUP2 MSTORE SWAP1 PUSH1 0x1 ADD SWAP1 PUSH1 0x20 ADD DUP1 DUP4 GT PUSH2 0x3E0 JUMPI DUP3 SWAP1 SUB PUSH1 0x1F AND DUP3 ADD SWAP2 JUMPDEST POP POP POP POP POP SWAP7 POP DUP6 DUP1 SLOAD PUSH2 0x410 SWAP1 PUSH2 0x170B JUMP JUMPDEST DUP1 PUSH1 0x1F ADD PUSH1 0x20 DUP1 SWAP2 DIV MUL PUSH1 0x20 ADD PUSH1 0x40 MLOAD SWAP1 DUP2 ADD PUSH1 0x40 MSTORE DUP1 SWAP3 SWAP2 SWAP1 DUP2 DUP2 MSTORE PUSH1 0x20 ADD DUP3 DUP1 SLOAD PUSH2 0x43C SWAP1 PUSH2 0x170B JUMP JUMPDEST DUP1 ISZERO PUSH2 0x489 JUMPI DUP1 PUSH1 0x1F LT PUSH2 0x45E JUMPI PUSH2 0x100 DUP1 DUP4 SLOAD DIV MUL DUP4 MSTORE SWAP2 PUSH1 0x20 ADD SWAP2 PUSH2 0x489 JUMP JUMPDEST DUP3 ADD SWAP2 SWAP1 PUSH1 0x0 MSTORE PUSH1 0x20 PUSH1 0x0 KECCAK256 SWAP1 JUMPDEST DUP2 SLOAD DUP2 MSTORE SWAP1 PUSH1 0x1 ADD SWAP1 PUSH1 0x20 ADD DUP1 DUP4 GT PUSH2 0x46C JUMPI DUP3 SWAP1 SUB PUSH1 0x1F AND DUP3 ADD SWAP2 JUMPDEST POP POP POP POP POP SWAP6 POP DUP5 DUP1 SLOAD PUSH2 0x49C SWAP1 PUSH2 0x170B JUMP JUMPDEST DUP1 PUSH1 0x1F ADD PUSH1 0x20 DUP1 SWAP2 DIV MUL PUSH1 0x20 ADD PUSH1 0x40 MLOAD SWAP1 DUP2 ADD PUSH1 0x40 MSTORE DUP1 SWAP3 SWAP2 SWAP1 DUP2 DUP2 MSTORE PUSH1 0x20 ADD DUP3 DUP1 SLOAD PUSH2 0x4C8 SWAP1 PUSH2 0x170B JUMP JUMPDEST DUP1 ISZERO PUSH2 0x515 JUMPI DUP1 PUSH1 0x1F LT PUSH2 0x4EA JUMPI PUSH2 0x100 DUP1 DUP4 SLOAD DIV MUL DUP4 MSTORE SWAP2 PUSH1 0x20 ADD SWAP2 PUSH2 0x515 JUMP JUMPDEST DUP3 ADD SWAP2 SWAP1 PUSH1 0x0 MSTORE PUSH1 0x20 PUSH1 0x0 KECCAK256 SWAP1 JUMPDEST DUP2 SLOAD DUP2 MSTORE SWAP1 PUSH1 0x1 ADD SWAP1 PUSH1 0x20 ADD DUP1 DUP4 GT PUSH2 0x4F8 JUMPI DUP3 SWAP1 SUB PUSH1 0x1F AND DUP3 ADD SWAP2 JUMPDEST POP POP POP POP POP SWAP5 POP SWAP8 POP SWAP8 POP SWAP8 POP SWAP8 POP SWAP8 POP SWAP8 POP SWAP8 POP POP PUSH2 0x57F JUMP JUMPDEST DUP1 DUP1 PUSH2 0x53B SWAP1 PUSH2 0x181A JUMP JUMPDEST SWAP2 POP POP PUSH2 0x1E0 JUMP JUMPDEST POP PUSH1 0x40 MLOAD PUSH32 0x8C379A000000000000000000000000000000000000000000000000000000000 DUP2 MSTORE PUSH1 0x4 ADD PUSH2 0x576 SWAP1 PUSH2 0x18AE JUMP JUMPDEST PUSH1 0x40 MLOAD DUP1 SWAP2 SUB SWAP1 REVERT JUMPDEST SWAP3 SWAP6 SWAP9 SWAP2 SWAP5 SWAP8 POP SWAP3 SWAP6 POP JUMP JUMPDEST PUSH1 0x0 DUP2 DUP2 SLOAD DUP2 LT PUSH2 0x59B JUMPI PUSH1 0x0 DUP1 REVERT JUMPDEST SWAP1 PUSH1 0x0 MSTORE PUSH1 0x20 PUSH1 0x0 KECCAK256 SWAP1 PUSH1 0x6 MUL ADD PUSH1 0x0 SWAP2 POP SWAP1 POP DUP1 PUSH1 0x0 ADD DUP1 SLOAD PUSH2 0x5BE SWAP1 PUSH2 0x170B JUMP JUMPDEST DUP1 PUSH1 0x1F ADD PUSH1 0x20 DUP1 SWAP2 DIV MUL PUSH1 0x20 ADD PUSH1 0x40 MLOAD SWAP1 DUP2 ADD PUSH1 0x40 MSTORE DUP1 SWAP3 SWAP2 SWAP1 DUP2 DUP2 MSTORE PUSH1 0x20 ADD DUP3 DUP1 SLOAD PUSH2 0x5EA SWAP1 PUSH2 0x170B JUMP JUMPDEST DUP1 ISZERO PUSH2 0x637 JUMPI DUP1 PUSH1 0x1F LT PUSH2 0x60C JUMPI PUSH2 0x100 DUP1 DUP4 SLOAD DIV MUL DUP4 MSTORE SWAP2 PUSH1 0x20 ADD SWAP2 PUSH2 0x637 JUMP JUMPDEST DUP3 ADD SWAP2 SWAP1 PUSH1 0x0 MSTORE PUSH1 0x20 PUSH1 0x0 KECCAK256 SWAP1 JUMPDEST DUP2 SLOAD DUP2 MSTORE SWAP1 PUSH1 0x1 ADD SWAP1 PUSH1 0x20 ADD DUP1 DUP4 GT PUSH2 0x61A JUMPI DUP3 SWAP1 SUB PUSH1 0x1F AND DUP3 ADD SWAP2 JUMPDEST POP POP POP POP POP SWAP1 DUP1 PUSH1 0x1 ADD DUP1 SLOAD PUSH2 0x64C SWAP1 PUSH2 0x170B JUMP JUMPDEST DUP1 PUSH1 0x1F ADD PUSH1 0x20 DUP1 SWAP2 DIV MUL PUSH1 0x20 ADD PUSH1 0x40 MLOAD SWAP1 DUP2 ADD PUSH1 0x40 MSTORE DUP1 SWAP3 SWAP2 SWAP1 DUP2 DUP2 MSTORE PUSH1 0x20 ADD DUP3 DUP1 SLOAD PUSH2 0x678 SWAP1 PUSH2 0x170B JUMP JUMPDEST DUP1 ISZERO PUSH2 0x6C5 JUMPI DUP1 PUSH1 0x1F LT PUSH2 0x69A JUMPI PUSH2 0x100 DUP1 DUP4 SLOAD DIV MUL DUP4 MSTORE SWAP2 PUSH1 0x20 ADD SWAP2 PUSH2 0x6C5 JUMP JUMPDEST DUP3 ADD SWAP2 SWAP1 PUSH1 0x0 MSTORE PUSH1 0x20 PUSH1 0x0 KECCAK256 SWAP1 JUMPDEST DUP2 SLOAD DUP2 MSTORE SWAP1 PUSH1 0x1 ADD SWAP1 PUSH1 0x20 ADD DUP1 DUP4 GT PUSH2 0x6A8 JUMPI DUP3 SWAP1 SUB PUSH1 0x1F AND DUP3 ADD SWAP2 JUMPDEST POP POP POP POP POP SWAP1 DUP1 PUSH1 0x2 ADD DUP1 SLOAD PUSH2 0x6DA SWAP1 PUSH2 0x170B JUMP JUMPDEST DUP1 PUSH1 0x1F ADD PUSH1 0x20 DUP1 SWAP2 DIV MUL PUSH1 0x20 ADD PUSH1 0x40 MLOAD SWAP1 DUP2 ADD PUSH1 0x40 MSTORE DUP1 SWAP3 SWAP2 SWAP1 DUP2 DUP2 MSTORE PUSH1 0x20 ADD DUP3 DUP1 SLOAD PUSH2 0x706 SWAP1 PUSH2 0x170B JUMP JUMPDEST DUP1 ISZERO PUSH2 0x753 JUMPI DUP1 PUSH1 0x1F LT PUSH2 0x728 JUMPI PUSH2 0x100 DUP1 DUP4 SLOAD DIV MUL DUP4 MSTORE SWAP2 PUSH1 0x20 ADD SWAP2 PUSH2 0x753 JUMP JUMPDEST DUP3 ADD SWAP2 SWAP1 PUSH1 0x0 MSTORE PUSH1 0x20 PUSH1 0x0 KECCAK256 SWAP1 JUMPDEST DUP2 SLOAD DUP2 MSTORE SWAP1 PUSH1 0x1 ADD SWAP1 PUSH1 0x20 ADD DUP1 DUP4 GT PUSH2 0x736 JUMPI DUP3 SWAP1 SUB PUSH1 0x1F AND DUP3 ADD SWAP2 JUMPDEST POP POP POP POP POP SWAP1 DUP1 PUSH1 0x3 ADD PUSH1 0x0 SWAP1 SLOAD SWAP1 PUSH2 0x100 EXP SWAP1 DIV PUSH20 0xFFFFFFFFFFFFFFFFFFFFFFFFFFFFFFFFFFFFFFFF AND SWAP1 DUP1 PUSH1 0x3 ADD PUSH1 0x14 SWAP1 SLOAD SWAP1 PUSH2 0x100 EXP SWAP1 DIV PUSH1 0xFF AND SWAP1 DUP1 PUSH1 0x4 ADD SLOAD SWAP1 DUP1 PUSH1 0x5 ADD SLOAD SWAP1 POP DUP8 JUMP JUMPDEST PUSH1 0x0 DUP2 GT PUSH2 0x7E5 JUMPI PUSH1 0x40 MLOAD PUSH32 0x8C379A000000000000000000000000000000000000000000000000000000000 DUP2 MSTORE PUSH1 0x4 ADD PUSH2 0x7DC SWAP1 PUSH2 0x1940 JUMP JUMPDEST PUSH1 0x40 MLOAD DUP1 SWAP2 SUB SWAP1 REVERT JUMPDEST PUSH1 0x0 PUSH1 0x40 MLOAD DUP1 PUSH1 0xE0 ADD PUSH1 0x40 MSTORE DUP1 DUP10 DUP10 DUP1 DUP1 PUSH1 0x1F ADD PUSH1 0x20 DUP1 SWAP2 DIV MUL PUSH1 0x20 ADD PUSH1 0x40 MLOAD SWAP1 DUP2 ADD PUSH1 0x40 MSTORE DUP1 SWAP4 SWAP3 SWAP2 SWAP1 DUP2 DUP2 MSTORE PUSH1 0x20 ADD DUP4 DUP4 DUP1 DUP3 DUP5 CALLDATACOPY PUSH1 0x0 DUP2 DUP5 ADD MSTORE PUSH1 0x1F NOT PUSH1 0x1F DUP3 ADD AND SWAP1 POP DUP1 DUP4 ADD SWAP3 POP POP POP POP POP POP POP DUP2 MSTORE PUSH1 0x20 ADD DUP8 DUP8 DUP1 DUP1 PUSH1 0x1F ADD PUSH1 0x20 DUP1 SWAP2 DIV MUL PUSH1 0x20 ADD PUSH1 0x40 MLOAD SWAP1 DUP2 ADD PUSH1 0x40 MSTORE DUP1 SWAP4 SWAP3 SWAP2 SWAP1 DUP2 DUP2 MSTORE PUSH1 0x20 ADD DUP4 DUP4 DUP1 DUP3 DUP5 CALLDATACOPY PUSH1 0x0 DUP2 DUP5 ADD MSTORE PUSH1 0x1F NOT PUSH1 0x1F DUP3 ADD AND SWAP1 POP DUP1 DUP4 ADD SWAP3 POP POP POP POP POP POP POP DUP2 MSTORE PUSH1 0x20 ADD DUP6 DUP6 DUP1 DUP1 PUSH1 0x1F ADD PUSH1 0x20 DUP1 SWAP2 DIV MUL PUSH1 0x20 ADD PUSH1 0x40 MLOAD SWAP1 DUP2 ADD PUSH1 0x40 MSTORE DUP1 SWAP4 SWAP3 SWAP2 SWAP1 DUP2 DUP2 MSTORE PUSH1 0x20 ADD DUP4 DUP4 DUP1 DUP3 DUP5 CALLDATACOPY PUSH1 0x0 DUP2 DUP5 ADD MSTORE PUSH1 0x1F NOT PUSH1 0x1F DUP3 ADD AND SWAP1 POP DUP1 DUP4 ADD SWAP3 POP POP POP POP POP POP POP DUP2 MSTORE PUSH1 0x20 ADD CALLER PUSH20 0xFFFFFFFFFFFFFFFFFFFFFFFFFFFFFFFFFFFFFFFF AND DUP2 MSTORE PUSH1 0x20 ADD PUSH1 0x0 PUSH1 0x1 DUP2 GT ISZERO PUSH2 0x900 JUMPI PUSH2 0x8FF PUSH2 0x1154 JUMP JUMPDEST JUMPDEST DUP2 MSTORE PUSH1 0x20 ADD PUSH1 0x0 DUP2 MSTORE PUSH1 0x20 ADD DUP4 DUP2 MSTORE POP SWAP1 POP PUSH1 0x0 DUP2 SWAP1 DUP1 PUSH1 0x1 DUP2 SLOAD ADD DUP1 DUP3 SSTORE DUP1 SWAP2 POP POP PUSH1 0x1 SWAP1 SUB SWAP1 PUSH1 0x0 MSTORE PUSH1 0x20 PUSH1 0x0 KECCAK256 SWAP1 PUSH1 0x6 MUL ADD PUSH1 0x0 SWAP1 SWAP2 SWAP1 SWAP2 SWAP1 SWAP2 POP PUSH1 0x0 DUP3 ADD MLOAD DUP2 PUSH1 0x0 ADD SWAP1 DUP2 PUSH2 0x953 SWAP2 SWAP1 PUSH2 0x1B0C JUMP JUMPDEST POP PUSH1 0x20 DUP3 ADD MLOAD DUP2 PUSH1 0x1 ADD SWAP1 DUP2 PUSH2 0x969 SWAP2 SWAP1 PUSH2 0x1B0C JUMP JUMPDEST POP PUSH1 0x40 DUP3 ADD MLOAD DUP2 PUSH1 0x2 ADD SWAP1 DUP2 PUSH2 0x97F SWAP2 SWAP1 PUSH2 0x1B0C JUMP JUMPDEST POP PUSH1 0x60 DUP3 ADD MLOAD DUP2 PUSH1 0x3 ADD PUSH1 0x0 PUSH2 0x100 EXP DUP2 SLOAD DUP2 PUSH20 0xFFFFFFFFFFFFFFFFFFFFFFFFFFFFFFFFFFFFFFFF MUL NOT AND SWAP1 DUP4 PUSH20 0xFFFFFFFFFFFFFFFFFFFFFFFFFFFFFFFFFFFFFFFF AND MUL OR SWAP1 SSTORE POP PUSH1 0x80 DUP3 ADD MLOAD DUP2 PUSH1 0x3 ADD PUSH1 0x14 PUSH2 0x100 EXP DUP2 SLOAD DUP2 PUSH1 0xFF MUL NOT AND SWAP1 DUP4 PUSH1 0x1 DUP2 GT ISZERO PUSH2 0x9F2 JUMPI PUSH2 0x9F1 PUSH2 0x1154 JUMP JUMPDEST JUMPDEST MUL OR SWAP1 SSTORE POP PUSH1 0xA0 DUP3 ADD MLOAD DUP2 PUSH1 0x4 ADD SSTORE PUSH1 0xC0 DUP3 ADD MLOAD DUP2 PUSH1 0x5 ADD SSTORE POP POP PUSH32 0x472657FB15180BEB1548B31ADEE57ADA1EFA0DBD19D25622C6F1A27D0C97C237 DUP9 DUP9 DUP9 DUP9 DUP9 DUP9 DUP9 PUSH1 0x40 MLOAD PUSH2 0xA48 SWAP8 SWAP7 SWAP6 SWAP5 SWAP4 SWAP3 SWAP2 SWAP1 PUSH2 0x1C0B JUMP JUMPDEST PUSH1 0x40 MLOAD DUP1 SWAP2 SUB SWAP1 LOG1 POP POP POP POP POP POP POP POP JUMP JUMPDEST PUSH1 0x0 DUP1 DUP1 SLOAD SWAP1 POP SWAP1 POP SWAP1 JUMP JUMPDEST DUP1 CALLER PUSH20 0xFFFFFFFFFFFFFFFFFFFFFFFFFFFFFFFFFFFFFFFF AND PUSH1 0x0 DUP3 DUP2 SLOAD DUP2 LT PUSH2 0xA92 JUMPI PUSH2 0xA91 PUSH2 0x16AD JUMP JUMPDEST JUMPDEST SWAP1 PUSH1 0x0 MSTORE PUSH1 0x20 PUSH1 0x0 KECCAK256 SWAP1 PUSH1 0x6 MUL ADD PUSH1 0x3 ADD PUSH1 0x0 SWAP1 SLOAD SWAP1 PUSH2 0x100 EXP SWAP1 DIV PUSH20 0xFFFFFFFFFFFFFFFFFFFFFFFFFFFFFFFFFFFFFFFF AND PUSH20 0xFFFFFFFFFFFFFFFFFFFFFFFFFFFFFFFFFFFFFFFF AND SUB PUSH2 0xB1A JUMPI PUSH1 0x40 MLOAD PUSH32 0x8C379A000000000000000000000000000000000000000000000000000000000 DUP2 MSTORE PUSH1 0x4 ADD PUSH2 0xB11 SWAP1 PUSH2 0x1CDD JUMP JUMPDEST PUSH1 0x40 MLOAD DUP1 SWAP2 SUB SWAP1 REVERT JUMPDEST PUSH1 0x0 DUP1 DUP4 DUP2 SLOAD DUP2 LT PUSH2 0xB2F JUMPI PUSH2 0xB2E PUSH2 0x16AD JUMP JUMPDEST JUMPDEST SWAP1 PUSH1 0x0 MSTORE PUSH1 0x20 PUSH1 0x0 KECCAK256 SWAP1 PUSH1 0x6 MUL ADD SWAP1 POP PUSH1 0x1 DUP1 DUP2 GT ISZERO PUSH2 0xB52 JUMPI PUSH2 0xB51 PUSH2 0x1154 JUMP JUMPDEST JUMPDEST DUP2 PUSH1 0x3 ADD PUSH1 0x14 SWAP1 SLOAD SWAP1 PUSH2 0x100 EXP SWAP1 DIV PUSH1 0xFF AND PUSH1 0x1 DUP2 GT ISZERO PUSH2 0xB76 JUMPI PUSH2 0xB75 PUSH2 0x1154 JUMP JUMPDEST JUMPDEST SUB PUSH2 0xBB6 JUMPI PUSH1 0x40 MLOAD PUSH32 0x8C379A000000000000000000000000000000000000000000000000000000000 DUP2 MSTORE PUSH1 0x4 ADD PUSH2 0xBAD SWAP1 PUSH2 0x1D6F JUMP JUMPDEST PUSH1 0x40 MLOAD DUP1 SWAP2 SUB SWAP1 REVERT JUMPDEST PUSH1 0x0 CALLVALUE GT PUSH2 0xBF9 JUMPI PUSH1 0x40 MLOAD PUSH32 0x8C379A000000000000000000000000000000000000000000000000000000000 DUP2 MSTORE PUSH1 0x4 ADD PUSH2 0xBF0 SWAP1 PUSH2 0x1E01 JUMP JUMPDEST PUSH1 0x40 MLOAD DUP1 SWAP2 SUB SWAP1 REVERT JUMPDEST DUP1 PUSH1 0x3 ADD PUSH1 0x0 SWAP1 SLOAD SWAP1 PUSH2 0x100 EXP SWAP1 DIV PUSH20 0xFFFFFFFFFFFFFFFFFFFFFFFFFFFFFFFFFFFFFFFF AND PUSH20 0xFFFFFFFFFFFFFFFFFFFFFFFFFFFFFFFFFFFFFFFF AND PUSH2 0x8FC CALLVALUE SWAP1 DUP2 ISZERO MUL SWAP1 PUSH1 0x40 MLOAD PUSH1 0x0 PUSH1 0x40 MLOAD DUP1 DUP4 SUB DUP2 DUP6 DUP9 DUP9 CALL SWAP4 POP POP POP POP ISZERO DUP1 ISZERO PUSH2 0xC63 JUMPI RETURNDATASIZE PUSH1 0x0 DUP1 RETURNDATACOPY RETURNDATASIZE PUSH1 0x0 REVERT JUMPDEST POP CALLVALUE DUP2 PUSH1 0x4 ADD PUSH1 0x0 DUP3 DUP3 SLOAD PUSH2 0xC78 SWAP2 SWAP1 PUSH2 0x1E21 JUMP JUMPDEST SWAP3 POP POP DUP2 SWAP1 SSTORE POP PUSH1 0x1 DUP2 PUSH1 0x0 ADD PUSH1 0x40 MLOAD PUSH2 0xC92 SWAP2 SWAP1 PUSH2 0x1EE3 JUMP JUMPDEST SWAP1 DUP2 MSTORE PUSH1 0x20 ADD PUSH1 0x40 MLOAD DUP1 SWAP2 SUB SWAP1 KECCAK256 PUSH1 0x40 MLOAD DUP1 PUSH1 0x40 ADD PUSH1 0x40 MSTORE DUP1 CALLER PUSH20 0xFFFFFFFFFFFFFFFFFFFFFFFFFFFFFFFFFFFFFFFF AND DUP2 MSTORE PUSH1 0x20 ADD CALLVALUE DUP2 MSTORE POP SWAP1 DUP1 PUSH1 0x1 DUP2 SLOAD ADD DUP1 DUP3 SSTORE DUP1 SWAP2 POP POP PUSH1 0x1 SWAP1 SUB SWAP1 PUSH1 0x0 MSTORE PUSH1 0x20 PUSH1 0x0 KECCAK256 SWAP1 PUSH1 0x2 MUL ADD PUSH1 0x0 SWAP1 SWAP2 SWAP1 SWAP2 SWAP1 SWAP2 POP PUSH1 0x0 DUP3 ADD MLOAD DUP2 PUSH1 0x0 ADD PUSH1 0x0 PUSH2 0x100 EXP DUP2 SLOAD DUP2 PUSH20 0xFFFFFFFFFFFFFFFFFFFFFFFFFFFFFFFFFFFFFFFF MUL NOT AND SWAP1 DUP4 PUSH20 0xFFFFFFFFFFFFFFFFFFFFFFFFFFFFFFFFFFFFFFFF AND MUL OR SWAP1 SSTORE POP PUSH1 0x20 DUP3 ADD MLOAD DUP2 PUSH1 0x1 ADD SSTORE POP POP PUSH32 0x925C00924682E835F48A31E5B83CB323934F40A811C5A8F44A662915035033C6 DUP2 PUSH1 0x0 ADD CALLVALUE PUSH1 0x40 MLOAD PUSH2 0xD7B SWAP3 SWAP2 SWAP1 PUSH2 0x1F7E JUMP JUMPDEST PUSH1 0x40 MLOAD DUP1 SWAP2 SUB SWAP1 LOG1 POP POP POP JUMP JUMPDEST PUSH1 0x1 DUP3 DUP1 MLOAD PUSH1 0x20 DUP2 ADD DUP3 ADD DUP1 MLOAD DUP5 DUP3 MSTORE PUSH1 0x20 DUP4 ADD PUSH1 0x20 DUP6 ADD KECCAK256 DUP2 DUP4 MSTORE DUP1 SWAP6 POP POP POP POP POP POP DUP2 DUP2 SLOAD DUP2 LT PUSH2 0xDBA JUMPI PUSH1 0x0 DUP1 REVERT JUMPDEST SWAP1 PUSH1 0x0 MSTORE PUSH1 0x20 PUSH1 0x0 KECCAK256 SWAP1 PUSH1 0x2 MUL ADD PUSH1 0x0 SWAP2 POP SWAP2 POP POP DUP1 PUSH1 0x0 ADD PUSH1 0x0 SWAP1 SLOAD SWAP1 PUSH2 0x100 EXP SWAP1 DIV PUSH20 0xFFFFFFFFFFFFFFFFFFFFFFFFFFFFFFFFFFFFFFFF AND SWAP1 DUP1 PUSH1 0x1 ADD SLOAD SWAP1 POP DUP3 JUMP JUMPDEST DUP1 CALLER PUSH20 0xFFFFFFFFFFFFFFFFFFFFFFFFFFFFFFFFFFFFFFFF AND PUSH1 0x0 DUP3 DUP2 SLOAD DUP2 LT PUSH2 0xE2B JUMPI PUSH2 0xE2A PUSH2 0x16AD JUMP JUMPDEST JUMPDEST SWAP1 PUSH1 0x0 MSTORE PUSH1 0x20 PUSH1 0x0 KECCAK256 SWAP1 PUSH1 0x6 MUL ADD PUSH1 0x3 ADD PUSH1 0x0 SWAP1 SLOAD SWAP1 PUSH2 0x100 EXP SWAP1 DIV PUSH20 0xFFFFFFFFFFFFFFFFFFFFFFFFFFFFFFFFFFFFFFFF AND PUSH20 0xFFFFFFFFFFFFFFFFFFFFFFFFFFFFFFFFFFFFFFFF AND EQ PUSH2 0xEB3 JUMPI PUSH1 0x40 MLOAD PUSH32 0x8C379A000000000000000000000000000000000000000000000000000000000 DUP2 MSTORE PUSH1 0x4 ADD PUSH2 0xEAA SWAP1 PUSH2 0x2020 JUMP JUMPDEST PUSH1 0x40 MLOAD DUP1 SWAP2 SUB SWAP1 REVERT JUMPDEST PUSH1 0x0 DUP1 DUP4 DUP2 SLOAD DUP2 LT PUSH2 0xEC8 JUMPI PUSH2 0xEC7 PUSH2 0x16AD JUMP JUMPDEST JUMPDEST SWAP1 PUSH1 0x0 MSTORE PUSH1 0x20 PUSH1 0x0 KECCAK256 SWAP1 PUSH1 0x6 MUL ADD SWAP1 POP DUP4 PUSH1 0x1 DUP2 GT ISZERO PUSH2 0xEEB JUMPI PUSH2 0xEEA PUSH2 0x1154 JUMP JUMPDEST JUMPDEST DUP2 PUSH1 0x3 ADD PUSH1 0x14 SWAP1 SLOAD SWAP1 PUSH2 0x100 EXP SWAP1 DIV PUSH1 0xFF AND PUSH1 0x1 DUP2 GT ISZERO PUSH2 0xF0F JUMPI PUSH2 0xF0E PUSH2 0x1154 JUMP JUMPDEST JUMPDEST SUB PUSH2 0xF4F JUMPI PUSH1 0x40 MLOAD PUSH32 0x8C379A000000000000000000000000000000000000000000000000000000000 DUP2 MSTORE PUSH1 0x4 ADD PUSH2 0xF46 SWAP1 PUSH2 0x208C JUMP JUMPDEST PUSH1 0x40 MLOAD DUP1 SWAP2 SUB SWAP1 REVERT JUMPDEST DUP4 DUP2 PUSH1 0x3 ADD PUSH1 0x14 PUSH2 0x100 EXP DUP2 SLOAD DUP2 PUSH1 0xFF MUL NOT AND SWAP1 DUP4 PUSH1 0x1 DUP2 GT ISZERO PUSH2 0xF76 JUMPI PUSH2 0xF75 PUSH2 0x1154 JUMP JUMPDEST JUMPDEST MUL OR SWAP1 SSTORE POP PUSH32 0xD63742463CD36BB1DEDCFDCDEDC4F9A6FDEAF7C80D9E702884E6B373ECB51F1D DUP2 PUSH1 0x0 ADD DUP6 PUSH1 0x40 MLOAD PUSH2 0xFAF SWAP3 SWAP2 SWAP1 PUSH2 0x20AC JUMP JUMPDEST PUSH1 0x40 MLOAD DUP1 SWAP2 SUB SWAP1 LOG1 POP POP POP POP JUMP JUMPDEST PUSH1 0x0 PUSH1 0x40 MLOAD SWAP1 POP SWAP1 JUMP JUMPDEST PUSH1 0x0 DUP1 REVERT JUMPDEST PUSH1 0x0 DUP1 REVERT JUMPDEST PUSH1 0x0 DUP1 REVERT JUMPDEST PUSH1 0x0 DUP1 REVERT JUMPDEST PUSH1 0x0 DUP1 REVERT JUMPDEST PUSH1 0x0 DUP1 DUP4 PUSH1 0x1F DUP5 ADD SLT PUSH2 0xFF6 JUMPI PUSH2 0xFF5 PUSH2 0xFD1 JUMP JUMPDEST JUMPDEST DUP3 CALLDATALOAD SWAP1 POP PUSH8 0xFFFFFFFFFFFFFFFF DUP2 GT ISZERO PUSH2 0x1013 JUMPI PUSH2 0x1012 PUSH2 0xFD6 JUMP JUMPDEST JUMPDEST PUSH1 0x20 DUP4 ADD SWAP2 POP DUP4 PUSH1 0x1 DUP3 MUL DUP4 ADD GT ISZERO PUSH2 0x102F JUMPI PUSH2 0x102E PUSH2 0xFDB JUMP JUMPDEST JUMPDEST SWAP3 POP SWAP3 SWAP1 POP JUMP JUMPDEST PUSH1 0x0 DUP1 PUSH1 0x20 DUP4 DUP6 SUB SLT ISZERO PUSH2 0x104D JUMPI PUSH2 0x104C PUSH2 0xFC7 JUMP JUMPDEST JUMPDEST PUSH1 0x0 DUP4 ADD CALLDATALOAD PUSH8 0xFFFFFFFFFFFFFFFF DUP2 GT ISZERO PUSH2 0x106B JUMPI PUSH2 0x106A PUSH2 0xFCC JUMP JUMPDEST JUMPDEST PUSH2 0x1077 DUP6 DUP3 DUP7 ADD PUSH2 0xFE0 JUMP JUMPDEST SWAP3 POP SWAP3 POP POP SWAP3 POP SWAP3 SWAP1 POP JUMP JUMPDEST PUSH1 0x0 DUP2 MLOAD SWAP1 POP SWAP2 SWAP1 POP JUMP JUMPDEST PUSH1 0x0 DUP3 DUP3 MSTORE PUSH1 0x20 DUP3 ADD SWAP1 POP SWAP3 SWAP2 POP POP JUMP JUMPDEST PUSH1 0x0 JUMPDEST DUP4 DUP2 LT ISZERO PUSH2 0x10BD JUMPI DUP1 DUP3 ADD MLOAD DUP2 DUP5 ADD MSTORE PUSH1 0x20 DUP2 ADD SWAP1 POP PUSH2 0x10A2 JUMP JUMPDEST PUSH1 0x0 DUP5 DUP5 ADD MSTORE POP POP POP POP JUMP JUMPDEST PUSH1 0x0 PUSH1 0x1F NOT PUSH1 0x1F DUP4 ADD AND SWAP1 POP SWAP2 SWAP1 POP JUMP JUMPDEST PUSH1 0x0 PUSH2 0x10E5 DUP3 PUSH2 0x1083 JUMP JUMPDEST PUSH2 0x10EF DUP2 DUP6 PUSH2 0x108E JUMP JUMPDEST SWAP4 POP PUSH2 0x10FF DUP2 DUP6 PUSH1 0x20 DUP7 ADD PUSH2 0x109F JUMP JUMPDEST PUSH2 0x1108 DUP2 PUSH2 0x10C9 JUMP JUMPDEST DUP5 ADD SWAP2 POP POP SWAP3 SWAP2 POP POP JUMP JUMPDEST PUSH1 0x0 PUSH20 0xFFFFFFFFFFFFFFFFFFFFFFFFFFFFFFFFFFFFFFFF DUP3 AND SWAP1 POP SWAP2 SWAP1 POP JUMP JUMPDEST PUSH1 0x0 PUSH2 0x113E DUP3 PUSH2 0x1113 JUMP JUMPDEST SWAP1 POP SWAP2 SWAP1 POP JUMP JUMPDEST PUSH2 0x114E DUP2 PUSH2 0x1133 JUMP JUMPDEST DUP3 MSTORE POP POP JUMP JUMPDEST PUSH32 0x4E487B7100000000000000000000000000000000000000000000000000000000 PUSH1 0x0 MSTORE PUSH1 0x21 PUSH1 0x4 MSTORE PUSH1 0x24 PUSH1 0x0 REVERT JUMPDEST PUSH1 0x2 DUP2 LT PUSH2 0x1194 JUMPI PUSH2 0x1193 PUSH2 0x1154 JUMP JUMPDEST JUMPDEST POP JUMP JUMPDEST PUSH1 0x0 DUP2 SWAP1 POP PUSH2 0x11A5 DUP3 PUSH2 0x1183 JUMP JUMPDEST SWAP2 SWAP1 POP JUMP JUMPDEST PUSH1 0x0 PUSH2 0x11B5 DUP3 PUSH2 0x1197 JUMP JUMPDEST SWAP1 POP SWAP2 SWAP1 POP JUMP JUMPDEST PUSH2 0x11C5 DUP2 PUSH2 0x11AA JUMP JUMPDEST DUP3 MSTORE POP POP JUMP JUMPDEST PUSH1 0x0 DUP2 SWAP1 POP SWAP2 SWAP1 POP JUMP JUMPDEST PUSH2 0x11DE DUP2 PUSH2 0x11CB JUMP JUMPDEST DUP3 MSTORE POP POP JUMP JUMPDEST PUSH1 0x0 PUSH1 0xE0 DUP3 ADD SWAP1 POP DUP2 DUP2 SUB PUSH1 0x0 DUP4 ADD MSTORE PUSH2 0x11FE DUP2 DUP11 PUSH2 0x10DA JUMP JUMPDEST SWAP1 POP DUP2 DUP2 SUB PUSH1 0x20 DUP4 ADD MSTORE PUSH2 0x1212 DUP2 DUP10 PUSH2 0x10DA JUMP JUMPDEST SWAP1 POP DUP2 DUP2 SUB PUSH1 0x40 DUP4 ADD MSTORE PUSH2 0x1226 DUP2 DUP9 PUSH2 0x10DA JUMP JUMPDEST SWAP1 POP PUSH2 0x1235 PUSH1 0x60 DUP4 ADD DUP8 PUSH2 0x1145 JUMP JUMPDEST PUSH2 0x1242 PUSH1 0x80 DUP4 ADD DUP7 PUSH2 0x11BC JUMP JUMPDEST PUSH2 0x124F PUSH1 0xA0 DUP4 ADD DUP6 PUSH2 0x11D5 JUMP JUMPDEST PUSH2 0x125C PUSH1 0xC0 DUP4 ADD DUP5 PUSH2 0x11D5 JUMP JUMPDEST SWAP9 SWAP8 POP POP POP POP POP POP POP POP JUMP JUMPDEST PUSH2 0x1271 DUP2 PUSH2 0x11CB JUMP JUMPDEST DUP2 EQ PUSH2 0x127C JUMPI PUSH1 0x0 DUP1 REVERT JUMPDEST POP JUMP JUMPDEST PUSH1 0x0 DUP2 CALLDATALOAD SWAP1 POP PUSH2 0x128E DUP2 PUSH2 0x1268 JUMP JUMPDEST SWAP3 SWAP2 POP POP JUMP JUMPDEST PUSH1 0x0 PUSH1 0x20 DUP3 DUP5 SUB SLT ISZERO PUSH2 0x12AA JUMPI PUSH2 0x12A9 PUSH2 0xFC7 JUMP JUMPDEST JUMPDEST PUSH1 0x0 PUSH2 0x12B8 DUP5 DUP3 DUP6 ADD PUSH2 0x127F JUMP JUMPDEST SWAP2 POP POP SWAP3 SWAP2 POP POP JUMP JUMPDEST PUSH1 0x0 PUSH2 0x12CC DUP3 PUSH2 0x1113 JUMP JUMPDEST SWAP1 POP SWAP2 SWAP1 POP JUMP JUMPDEST PUSH2 0x12DC DUP2 PUSH2 0x12C1 JUMP JUMPDEST DUP3 MSTORE POP POP JUMP JUMPDEST PUSH1 0x0 PUSH1 0xE0 DUP3 ADD SWAP1 POP DUP2 DUP2 SUB PUSH1 0x0 DUP4 ADD MSTORE PUSH2 0x12FC DUP2 DUP11 PUSH2 0x10DA JUMP JUMPDEST SWAP1 POP DUP2 DUP2 SUB PUSH1 0x20 DUP4 ADD MSTORE PUSH2 0x1310 DUP2 DUP10 PUSH2 0x10DA JUMP JUMPDEST SWAP1 POP DUP2 DUP2 SUB PUSH1 0x40 DUP4 ADD MSTORE PUSH2 0x1324 DUP2 DUP9 PUSH2 0x10DA JUMP JUMPDEST SWAP1 POP PUSH2 0x1333 PUSH1 0x60 DUP4 ADD DUP8 PUSH2 0x12D3 JUMP JUMPDEST PUSH2 0x1340 PUSH1 0x80 DUP4 ADD DUP7 PUSH2 0x11BC JUMP JUMPDEST PUSH2 0x134D PUSH1 0xA0 DUP4 ADD DUP6 PUSH2 0x11D5 JUMP JUMPDEST PUSH2 0x135A PUSH1 0xC0 DUP4 ADD DUP5 PUSH2 0x11D5 JUMP JUMPDEST SWAP9 SWAP8 POP POP POP POP POP POP POP POP JUMP JUMPDEST PUSH1 0x0 DUP1 PUSH1 0x0 DUP1 PUSH1 0x0 DUP1 PUSH1 0x0 PUSH1 0x80 DUP9 DUP11 SUB SLT ISZERO PUSH2 0x1385 JUMPI PUSH2 0x1384 PUSH2 0xFC7 JUMP JUMPDEST JUMPDEST PUSH1 0x0 DUP9 ADD CALLDATALOAD PUSH8 0xFFFFFFFFFFFFFFFF DUP2 GT ISZERO PUSH2 0x13A3 JUMPI PUSH2 0x13A2 PUSH2 0xFCC JUMP JUMPDEST JUMPDEST PUSH2 0x13AF DUP11 DUP3 DUP12 ADD PUSH2 0xFE0 JUMP JUMPDEST SWAP8 POP SWAP8 POP POP PUSH1 0x20 DUP9 ADD CALLDATALOAD PUSH8 0xFFFFFFFFFFFFFFFF DUP2 GT ISZERO PUSH2 0x13D2 JUMPI PUSH2 0x13D1 PUSH2 0xFCC JUMP JUMPDEST JUMPDEST PUSH2 0x13DE DUP11 DUP3 DUP12 ADD PUSH2 0xFE0 JUMP JUMPDEST SWAP6 POP SWAP6 POP POP PUSH1 0x40 DUP9 ADD CALLDATALOAD PUSH8 0xFFFFFFFFFFFFFFFF DUP2 GT ISZERO PUSH2 0x1401 JUMPI PUSH2 0x1400 PUSH2 0xFCC JUMP JUMPDEST JUMPDEST PUSH2 0x140D DUP11 DUP3 DUP12 ADD PUSH2 0xFE0 JUMP JUMPDEST SWAP4 POP SWAP4 POP POP PUSH1 0x60 PUSH2 0x1420 DUP11 DUP3 DUP12 ADD PUSH2 0x127F JUMP JUMPDEST SWAP2 POP POP SWAP3 SWAP6 SWAP9 SWAP2 SWAP5 SWAP8 POP SWAP3 SWAP6 POP JUMP JUMPDEST PUSH1 0x0 PUSH1 0x20 DUP3 ADD SWAP1 POP PUSH2 0x1444 PUSH1 0x0 DUP4 ADD DUP5 PUSH2 0x11D5 JUMP JUMPDEST SWAP3 SWAP2 POP POP JUMP JUMPDEST PUSH1 0x0 DUP1 REVERT JUMPDEST PUSH32 0x4E487B7100000000000000000000000000000000000000000000000000000000 PUSH1 0x0 MSTORE PUSH1 0x41 PUSH1 0x4 MSTORE PUSH1 0x24 PUSH1 0x0 REVERT JUMPDEST PUSH2 0x1487 DUP3 PUSH2 0x10C9 JUMP JUMPDEST DUP2 ADD DUP2 DUP2 LT PUSH8 0xFFFFFFFFFFFFFFFF DUP3 GT OR ISZERO PUSH2 0x14A6 JUMPI PUSH2 0x14A5 PUSH2 0x144F JUMP JUMPDEST JUMPDEST DUP1 PUSH1 0x40 MSTORE POP POP POP JUMP JUMPDEST PUSH1 0x0 PUSH2 0x14B9 PUSH2 0xFBD JUMP JUMPDEST SWAP1 POP PUSH2 0x14C5 DUP3 DUP3 PUSH2 0x147E JUMP JUMPDEST SWAP2 SWAP1 POP JUMP JUMPDEST PUSH1 0x0 PUSH8 0xFFFFFFFFFFFFFFFF DUP3 GT ISZERO PUSH2 0x14E5 JUMPI PUSH2 0x14E4 PUSH2 0x144F JUMP JUMPDEST JUMPDEST PUSH2 0x14EE DUP3 PUSH2 0x10C9 JUMP JUMPDEST SWAP1 POP PUSH1 0x20 DUP2 ADD SWAP1 POP SWAP2 SWAP1 POP JUMP JUMPDEST DUP3 DUP2 DUP4 CALLDATACOPY PUSH1 0x0 DUP4 DUP4 ADD MSTORE POP POP POP JUMP JUMPDEST PUSH1 0x0 PUSH2 0x151D PUSH2 0x1518 DUP5 PUSH2 0x14CA JUMP JUMPDEST PUSH2 0x14AF JUMP JUMPDEST SWAP1 POP DUP3 DUP2 MSTORE PUSH1 0x20 DUP2 ADD DUP5 DUP5 DUP5 ADD GT ISZERO PUSH2 0x1539 JUMPI PUSH2 0x1538 PUSH2 0x144A JUMP JUMPDEST JUMPDEST PUSH2 0x1544 DUP5 DUP3 DUP6 PUSH2 0x14FB JUMP JUMPDEST POP SWAP4 SWAP3 POP POP POP JUMP JUMPDEST PUSH1 0x0 DUP3 PUSH1 0x1F DUP4 ADD SLT PUSH2 0x1561 JUMPI PUSH2 0x1560 PUSH2 0xFD1 JUMP JUMPDEST JUMPDEST DUP2 CALLDATALOAD PUSH2 0x1571 DUP5 DUP3 PUSH1 0x20 DUP7 ADD PUSH2 0x150A JUMP JUMPDEST SWAP2 POP POP SWAP3 SWAP2 POP POP JUMP JUMPDEST PUSH1 0x0 DUP1 PUSH1 0x40 DUP4 DUP6 SUB SLT ISZERO PUSH2 0x1591 JUMPI PUSH2 0x1590 PUSH2 0xFC7 JUMP JUMPDEST JUMPDEST PUSH1 0x0 DUP4 ADD CALLDATALOAD PUSH8 0xFFFFFFFFFFFFFFFF DUP2 GT ISZERO PUSH2 0x15AF JUMPI PUSH2 0x15AE PUSH2 0xFCC JUMP JUMPDEST JUMPDEST PUSH2 0x15BB DUP6 DUP3 DUP7 ADD PUSH2 0x154C JUMP JUMPDEST SWAP3 POP POP PUSH1 0x20 PUSH2 0x15CC DUP6 DUP3 DUP7 ADD PUSH2 0x127F JUMP JUMPDEST SWAP2 POP POP SWAP3 POP SWAP3 SWAP1 POP JUMP JUMPDEST PUSH1 0x0 PUSH1 0x40 DUP3 ADD SWAP1 POP PUSH2 0x15EB PUSH1 0x0 DUP4 ADD DUP6 PUSH2 0x1145 JUMP JUMPDEST PUSH2 0x15F8 PUSH1 0x20 DUP4 ADD DUP5 PUSH2 0x11D5 JUMP JUMPDEST SWAP4 SWAP3 POP POP POP JUMP JUMPDEST PUSH1 0x2 DUP2 LT PUSH2 0x160C JUMPI PUSH1 0x0 DUP1 REVERT JUMPDEST POP JUMP JUMPDEST PUSH1 0x0 DUP2 CALLDATALOAD SWAP1 POP PUSH2 0x161E DUP2 PUSH2 0x15FF JUMP JUMPDEST SWAP3 SWAP2 POP POP JUMP JUMPDEST PUSH1 0x0 DUP1 PUSH1 0x40 DUP4 DUP6 SUB SLT ISZERO PUSH2 0x163B JUMPI PUSH2 0x163A PUSH2 0xFC7 JUMP JUMPDEST JUMPDEST PUSH1 0x0 PUSH2 0x1649 DUP6 DUP3 DUP7 ADD PUSH2 0x160F JUMP JUMPDEST SWAP3 POP POP PUSH1 0x20 PUSH2 0x165A DUP6 DUP3 DUP7 ADD PUSH2 0x127F JUMP JUMPDEST SWAP2 POP POP SWAP3 POP SWAP3 SWAP1 POP JUMP JUMPDEST PUSH1 0x0 DUP2 SWAP1 POP SWAP3 SWAP2 POP POP JUMP JUMPDEST PUSH1 0x0 PUSH2 0x167B DUP4 DUP6 PUSH2 0x1664 JUMP JUMPDEST SWAP4 POP PUSH2 0x1688 DUP4 DUP6 DUP5 PUSH2 0x14FB JUMP JUMPDEST DUP3 DUP5 ADD SWAP1 POP SWAP4 SWAP3 POP POP POP JUMP JUMPDEST PUSH1 0x0 PUSH2 0x16A1 DUP3 DUP5 DUP7 PUSH2 0x166F JUMP JUMPDEST SWAP2 POP DUP2 SWAP1 POP SWAP4 SWAP3 POP POP POP JUMP JUMPDEST PUSH32 0x4E487B7100000000000000000000000000000000000000000000000000000000 PUSH1 0x0 MSTORE PUSH1 0x32 PUSH1 0x4 MSTORE PUSH1 0x24 PUSH1 0x0 REVERT JUMPDEST PUSH32 0x4E487B7100000000000000000000000000000000000000000000000000000000 PUSH1 0x0 MSTORE PUSH1 0x22 PUSH1 0x4 MSTORE PUSH1 0x24 PUSH1 0x0 REVERT JUMPDEST PUSH1 0x0 PUSH1 0x2 DUP3 DIV SWAP1 POP PUSH1 0x1 DUP3 AND DUP1 PUSH2 0x1723 JUMPI PUSH1 0x7F DUP3 AND SWAP2 POP JUMPDEST PUSH1 0x20 DUP3 LT DUP2 SUB PUSH2 0x1736 JUMPI PUSH2 0x1735 PUSH2 0x16DC JUMP JUMPDEST JUMPDEST POP SWAP2 SWAP1 POP JUMP JUMPDEST PUSH1 0x0 DUP2 SWAP1 POP DUP2 PUSH1 0x0 MSTORE PUSH1 0x20 PUSH1 0x0 KECCAK256 SWAP1 POP SWAP2 SWAP1 POP JUMP JUMPDEST PUSH1 0x0 DUP2 SLOAD PUSH2 0x175E DUP2 PUSH2 0x170B JUMP JUMPDEST PUSH2 0x1768 DUP2 DUP7 PUSH2 0x1664 JUMP JUMPDEST SWAP5 POP PUSH1 0x1 DUP3 AND PUSH1 0x0 DUP2 EQ PUSH2 0x1783 JUMPI PUSH1 0x1 DUP2 EQ PUSH2 0x1798 JUMPI PUSH2 0x17CB JUMP JUMPDEST PUSH1 0xFF NOT DUP4 AND DUP7 MSTORE DUP2 ISZERO ISZERO DUP3 MUL DUP7 ADD SWAP4 POP PUSH2 0x17CB JUMP JUMPDEST PUSH2 0x17A1 DUP6 PUSH2 0x173C JUMP JUMPDEST PUSH1 0x0 JUMPDEST DUP4 DUP2 LT ISZERO PUSH2 0x17C3 JUMPI DUP2 SLOAD DUP2 DUP10 ADD MSTORE PUSH1 0x1 DUP3 ADD SWAP2 POP PUSH1 0x20 DUP2 ADD SWAP1 POP PUSH2 0x17A4 JUMP JUMPDEST DUP4 DUP9 ADD SWAP6 POP POP POP JUMPDEST POP POP POP SWAP3 SWAP2 POP POP JUMP JUMPDEST PUSH1 0x0 PUSH2 0x17E0 DUP3 DUP5 PUSH2 0x1751 JUMP JUMPDEST SWAP2 POP DUP2 SWAP1 POP SWAP3 SWAP2 POP POP JUMP JUMPDEST PUSH32 0x4E487B7100000000000000000000000000000000000000000000000000000000 PUSH1 0x0 MSTORE PUSH1 0x11 PUSH1 0x4 MSTORE PUSH1 0x24 PUSH1 0x0 REVERT JUMPDEST PUSH1 0x0 PUSH2 0x1825 DUP3 PUSH2 0x11CB JUMP JUMPDEST SWAP2 POP PUSH32 0xFFFFFFFFFFFFFFFFFFFFFFFFFFFFFFFFFFFFFFFFFFFFFFFFFFFFFFFFFFFFFFFF DUP3 SUB PUSH2 0x1857 JUMPI PUSH2 0x1856 PUSH2 0x17EB JUMP JUMPDEST JUMPDEST PUSH1 0x1 DUP3 ADD SWAP1 POP SWAP2 SWAP1 POP JUMP JUMPDEST PUSH32 0x50726F6A656374206E6F7420666F756E64000000000000000000000000000000 PUSH1 0x0 DUP3 ADD MSTORE POP JUMP JUMPDEST PUSH1 0x0 PUSH2 0x1898 PUSH1 0x11 DUP4 PUSH2 0x108E JUMP JUMPDEST SWAP2 POP PUSH2 0x18A3 DUP3 PUSH2 0x1862 JUMP JUMPDEST PUSH1 0x20 DUP3 ADD SWAP1 POP SWAP2 SWAP1 POP JUMP JUMPDEST PUSH1 0x0 PUSH1 0x20 DUP3 ADD SWAP1 POP DUP2 DUP2 SUB PUSH1 0x0 DUP4 ADD MSTORE PUSH2 0x18C7 DUP2 PUSH2 0x188B JUMP JUMPDEST SWAP1 POP SWAP2 SWAP1 POP JUMP JUMPDEST PUSH32 0x66756E6472616973696E6720676F616C206D7573742062652067726561746572 PUSH1 0x0 DUP3 ADD MSTORE PUSH32 0x207468616E203000000000000000000000000000000000000000000000000000 PUSH1 0x20 DUP3 ADD MSTORE POP JUMP JUMPDEST PUSH1 0x0 PUSH2 0x192A PUSH1 0x27 DUP4 PUSH2 0x108E JUMP JUMPDEST SWAP2 POP PUSH2 0x1935 DUP3 PUSH2 0x18CE JUMP JUMPDEST PUSH1 0x40 DUP3 ADD SWAP1 POP SWAP2 SWAP1 POP JUMP JUMPDEST PUSH1 0x0 PUSH1 0x20 DUP3 ADD SWAP1 POP DUP2 DUP2 SUB PUSH1 0x0 DUP4 ADD MSTORE PUSH2 0x1959 DUP2 PUSH2 0x191D JUMP JUMPDEST SWAP1 POP SWAP2 SWAP1 POP JUMP JUMPDEST PUSH1 0x0 DUP2 SWAP1 POP DUP2 PUSH1 0x0 MSTORE PUSH1 0x20 PUSH1 0x0 KECCAK256 SWAP1 POP SWAP2 SWAP1 POP JUMP JUMPDEST PUSH1 0x0 PUSH1 0x20 PUSH1 0x1F DUP4 ADD DIV SWAP1 POP SWAP2 SWAP1 POP JUMP JUMPDEST PUSH1 0x0 DUP3 DUP3 SHL SWAP1 POP SWAP3 SWAP2 POP POP JUMP JUMPDEST PUSH1 0x0 PUSH1 0x8 DUP4 MUL PUSH2 0x19C2 PUSH32 0xFFFFFFFFFFFFFFFFFFFFFFFFFFFFFFFFFFFFFFFFFFFFFFFFFFFFFFFFFFFFFFFF DUP3 PUSH2 0x1985 JUMP JUMPDEST PUSH2 0x19CC DUP7 DUP4 PUSH2 0x1985 JUMP JUMPDEST SWAP6 POP DUP1 NOT DUP5 AND SWAP4 POP DUP1 DUP7 AND DUP5 OR SWAP3 POP POP POP SWAP4 SWAP3 POP POP POP JUMP JUMPDEST PUSH1 0x0 DUP2 SWAP1 POP SWAP2 SWAP1 POP JUMP JUMPDEST PUSH1 0x0 PUSH2 0x1A09 PUSH2 0x1A04 PUSH2 0x19FF DUP5 PUSH2 0x11CB JUMP JUMPDEST PUSH2 0x19E4 JUMP JUMPDEST PUSH2 0x11CB JUMP JUMPDEST SWAP1 POP SWAP2 SWAP1 POP JUMP JUMPDEST PUSH1 0x0 DUP2 SWAP1 POP SWAP2 SWAP1 POP JUMP JUMPDEST PUSH2 0x1A23 DUP4 PUSH2 0x19EE JUMP JUMPDEST PUSH2 0x1A37 PUSH2 0x1A2F DUP3 PUSH2 0x1A10 JUMP JUMPDEST DUP5 DUP5 SLOAD PUSH2 0x1992 JUMP JUMPDEST DUP3 SSTORE POP POP POP POP JUMP JUMPDEST PUSH1 0x0 SWAP1 JUMP JUMPDEST PUSH2 0x1A4C PUSH2 0x1A3F JUMP JUMPDEST PUSH2 0x1A57 DUP2 DUP5 DUP5 PUSH2 0x1A1A JUMP JUMPDEST POP POP POP JUMP JUMPDEST JUMPDEST DUP2 DUP2 LT ISZERO PUSH2 0x1A7B JUMPI PUSH2 0x1A70 PUSH1 0x0 DUP3 PUSH2 0x1A44 JUMP JUMPDEST PUSH1 0x1 DUP2 ADD SWAP1 POP PUSH2 0x1A5D JUMP JUMPDEST POP POP JUMP JUMPDEST PUSH1 0x1F DUP3 GT ISZERO PUSH2 0x1AC0 JUMPI PUSH2 0x1A91 DUP2 PUSH2 0x1960 JUMP JUMPDEST PUSH2 0x1A9A DUP5 PUSH2 0x1975 JUMP JUMPDEST DUP2 ADD PUSH1 0x20 DUP6 LT ISZERO PUSH2 0x1AA9 JUMPI DUP2 SWAP1 POP JUMPDEST PUSH2 0x1ABD PUSH2 0x1AB5 DUP6 PUSH2 0x1975 JUMP JUMPDEST DUP4 ADD DUP3 PUSH2 0x1A5C JUMP JUMPDEST POP POP JUMPDEST POP POP POP JUMP JUMPDEST PUSH1 0x0 DUP3 DUP3 SHR SWAP1 POP SWAP3 SWAP2 POP POP JUMP JUMPDEST PUSH1 0x0 PUSH2 0x1AE3 PUSH1 0x0 NOT DUP5 PUSH1 0x8 MUL PUSH2 0x1AC5 JUMP JUMPDEST NOT DUP1 DUP4 AND SWAP2 POP POP SWAP3 SWAP2 POP POP JUMP JUMPDEST PUSH1 0x0 PUSH2 0x1AFC DUP4 DUP4 PUSH2 0x1AD2 JUMP JUMPDEST SWAP2 POP DUP3 PUSH1 0x2 MUL DUP3 OR SWAP1 POP SWAP3 SWAP2 POP POP JUMP JUMPDEST PUSH2 0x1B15 DUP3 PUSH2 0x1083 JUMP JUMPDEST PUSH8 0xFFFFFFFFFFFFFFFF DUP2 GT ISZERO PUSH2 0x1B2E JUMPI PUSH2 0x1B2D PUSH2 0x144F JUMP JUMPDEST JUMPDEST PUSH2 0x1B38 DUP3 SLOAD PUSH2 0x170B JUMP JUMPDEST PUSH2 0x1B43 DUP3 DUP3 DUP6 PUSH2 0x1A7F JUMP JUMPDEST PUSH1 0x0 PUSH1 0x20 SWAP1 POP PUSH1 0x1F DUP4 GT PUSH1 0x1 DUP2 EQ PUSH2 0x1B76 JUMPI PUSH1 0x0 DUP5 ISZERO PUSH2 0x1B64 JUMPI DUP3 DUP8 ADD MLOAD SWAP1 POP JUMPDEST PUSH2 0x1B6E DUP6 DUP3 PUSH2 0x1AF0 JUMP JUMPDEST DUP7 SSTORE POP PUSH2 0x1BD6 JUMP JUMPDEST PUSH1 0x1F NOT DUP5 AND PUSH2 0x1B84 DUP7 PUSH2 0x1960 JUMP JUMPDEST PUSH1 0x0 JUMPDEST DUP3 DUP2 LT ISZERO PUSH2 0x1BAC JUMPI DUP5 DUP10 ADD MLOAD DUP3 SSTORE PUSH1 0x1 DUP3 ADD SWAP2 POP PUSH1 0x20 DUP6 ADD SWAP5 POP PUSH1 0x20 DUP2 ADD SWAP1 POP PUSH2 0x1B87 JUMP JUMPDEST DUP7 DUP4 LT ISZERO PUSH2 0x1BC9 JUMPI DUP5 DUP10 ADD MLOAD PUSH2 0x1BC5 PUSH1 0x1F DUP10 AND DUP3 PUSH2 0x1AD2 JUMP JUMPDEST DUP4 SSTORE POP JUMPDEST PUSH1 0x1 PUSH1 0x2 DUP9 MUL ADD DUP9 SSTORE POP POP POP JUMPDEST POP POP POP POP POP POP JUMP JUMPDEST PUSH1 0x0 PUSH2 0x1BEA DUP4 DUP6 PUSH2 0x108E JUMP JUMPDEST SWAP4 POP PUSH2 0x1BF7 DUP4 DUP6 DUP5 PUSH2 0x14FB JUMP JUMPDEST PUSH2 0x1C00 DUP4 PUSH2 0x10C9 JUMP JUMPDEST DUP5 ADD SWAP1 POP SWAP4 SWAP3 POP POP POP JUMP JUMPDEST PUSH1 0x0 PUSH1 0x80 DUP3 ADD SWAP1 POP DUP2 DUP2 SUB PUSH1 0x0 DUP4 ADD MSTORE PUSH2 0x1C26 DUP2 DUP10 DUP12 PUSH2 0x1BDE JUMP JUMPDEST SWAP1 POP DUP2 DUP2 SUB PUSH1 0x20 DUP4 ADD MSTORE PUSH2 0x1C3B DUP2 DUP8 DUP10 PUSH2 0x1BDE JUMP JUMPDEST SWAP1 POP DUP2 DUP2 SUB PUSH1 0x40 DUP4 ADD MSTORE PUSH2 0x1C50 DUP2 DUP6 DUP8 PUSH2 0x1BDE JUMP JUMPDEST SWAP1 POP PUSH2 0x1C5F PUSH1 0x60 DUP4 ADD DUP5 PUSH2 0x11D5 JUMP JUMPDEST SWAP9 SWAP8 POP POP POP POP POP POP POP POP JUMP JUMPDEST PUSH32 0x417320617574686F7220796F752063616E206E6F742066756E6420796F757220 PUSH1 0x0 DUP3 ADD MSTORE PUSH32 0x6F776E2070726F6A656374000000000000000000000000000000000000000000 PUSH1 0x20 DUP3 ADD MSTORE POP JUMP JUMPDEST PUSH1 0x0 PUSH2 0x1CC7 PUSH1 0x2B DUP4 PUSH2 0x108E JUMP JUMPDEST SWAP2 POP PUSH2 0x1CD2 DUP3 PUSH2 0x1C6B JUMP JUMPDEST PUSH1 0x40 DUP3 ADD SWAP1 POP SWAP2 SWAP1 POP JUMP JUMPDEST PUSH1 0x0 PUSH1 0x20 DUP3 ADD SWAP1 POP DUP2 DUP2 SUB PUSH1 0x0 DUP4 ADD MSTORE PUSH2 0x1CF6 DUP2 PUSH2 0x1CBA JUMP JUMPDEST SWAP1 POP SWAP2 SWAP1 POP JUMP JUMPDEST PUSH32 0x5468652070726F6A6563742063616E206E6F7420726563656976652066756E64 PUSH1 0x0 DUP3 ADD MSTORE PUSH32 0x7300000000000000000000000000000000000000000000000000000000000000 PUSH1 0x20 DUP3 ADD MSTORE POP JUMP JUMPDEST PUSH1 0x0 PUSH2 0x1D59 PUSH1 0x21 DUP4 PUSH2 0x108E JUMP JUMPDEST SWAP2 POP PUSH2 0x1D64 DUP3 PUSH2 0x1CFD JUMP JUMPDEST PUSH1 0x40 DUP3 ADD SWAP1 POP SWAP2 SWAP1 POP JUMP JUMPDEST PUSH1 0x0 PUSH1 0x20 DUP3 ADD SWAP1 POP DUP2 DUP2 SUB PUSH1 0x0 DUP4 ADD MSTORE PUSH2 0x1D88 DUP2 PUSH2 0x1D4C JUMP JUMPDEST SWAP1 POP SWAP2 SWAP1 POP JUMP JUMPDEST PUSH32 0x46756E642076616C7565206D7573742062652067726561746572207468616E20 PUSH1 0x0 DUP3 ADD MSTORE PUSH32 0x3000000000000000000000000000000000000000000000000000000000000000 PUSH1 0x20 DUP3 ADD MSTORE POP JUMP JUMPDEST PUSH1 0x0 PUSH2 0x1DEB PUSH1 0x21 DUP4 PUSH2 0x108E JUMP JUMPDEST SWAP2 POP PUSH2 0x1DF6 DUP3 PUSH2 0x1D8F JUMP JUMPDEST PUSH1 0x40 DUP3 ADD SWAP1 POP SWAP2 SWAP1 POP JUMP JUMPDEST PUSH1 0x0 PUSH1 0x20 DUP3 ADD SWAP1 POP DUP2 DUP2 SUB PUSH1 0x0 DUP4 ADD MSTORE PUSH2 0x1E1A DUP2 PUSH2 0x1DDE JUMP JUMPDEST SWAP1 POP SWAP2 SWAP1 POP JUMP JUMPDEST PUSH1 0x0 PUSH2 0x1E2C DUP3 PUSH2 0x11CB JUMP JUMPDEST SWAP2 POP PUSH2 0x1E37 DUP4 PUSH2 0x11CB JUMP JUMPDEST SWAP3 POP DUP3 DUP3 ADD SWAP1 POP DUP1 DUP3 GT ISZERO PUSH2 0x1E4F JUMPI PUSH2 0x1E4E PUSH2 0x17EB JUMP JUMPDEST JUMPDEST SWAP3 SWAP2 POP POP JUMP JUMPDEST PUSH1 0x0 DUP2 SWAP1 POP SWAP3 SWAP2 POP POP JUMP JUMPDEST PUSH1 0x0 DUP2 SLOAD PUSH2 0x1E6D DUP2 PUSH2 0x170B JUMP JUMPDEST PUSH2 0x1E77 DUP2 DUP7 PUSH2 0x1E55 JUMP JUMPDEST SWAP5 POP PUSH1 0x1 DUP3 AND PUSH1 0x0 DUP2 EQ PUSH2 0x1E92 JUMPI PUSH1 0x1 DUP2 EQ PUSH2 0x1EA7 JUMPI PUSH2 0x1EDA JUMP JUMPDEST PUSH1 0xFF NOT DUP4 AND DUP7 MSTORE DUP2 ISZERO ISZERO DUP3 MUL DUP7 ADD SWAP4 POP PUSH2 0x1EDA JUMP JUMPDEST PUSH2 0x1EB0 DUP6 PUSH2 0x1960 JUMP JUMPDEST PUSH1 0x0 JUMPDEST DUP4 DUP2 LT ISZERO PUSH2 0x1ED2 JUMPI DUP2 SLOAD DUP2 DUP10 ADD MSTORE PUSH1 0x1 DUP3 ADD SWAP2 POP PUSH1 0x20 DUP2 ADD SWAP1 POP PUSH2 0x1EB3 JUMP JUMPDEST DUP4 DUP9 ADD SWAP6 POP POP POP JUMPDEST POP POP POP SWAP3 SWAP2 POP POP JUMP JUMPDEST PUSH1 0x0 PUSH2 0x1EEF DUP3 DUP5 PUSH2 0x1E60 JUMP JUMPDEST SWAP2 POP DUP2 SWAP1 POP SWAP3 SWAP2 POP POP JUMP JUMPDEST PUSH1 0x0 DUP2 SLOAD PUSH2 0x1F07 DUP2 PUSH2 0x170B JUMP JUMPDEST PUSH2 0x1F11 DUP2 DUP7 PUSH2 0x108E JUMP JUMPDEST SWAP5 POP PUSH1 0x1 DUP3 AND PUSH1 0x0 DUP2 EQ PUSH2 0x1F2C JUMPI PUSH1 0x1 DUP2 EQ PUSH2 0x1F42 JUMPI PUSH2 0x1F75 JUMP JUMPDEST PUSH1 0xFF NOT DUP4 AND DUP7 MSTORE DUP2 ISZERO ISZERO PUSH1 0x20 MUL DUP7 ADD SWAP4 POP PUSH2 0x1F75 JUMP JUMPDEST PUSH2 0x1F4B DUP6 PUSH2 0x1960 JUMP JUMPDEST PUSH1 0x0 JUMPDEST DUP4 DUP2 LT ISZERO PUSH2 0x1F6D JUMPI DUP2 SLOAD DUP2 DUP10 ADD MSTORE PUSH1 0x1 DUP3 ADD SWAP2 POP PUSH1 0x20 DUP2 ADD SWAP1 POP PUSH2 0x1F4E JUMP JUMPDEST DUP1 DUP9 ADD SWAP6 POP POP POP JUMPDEST POP POP POP SWAP3 SWAP2 POP POP JUMP JUMPDEST PUSH1 0x0 PUSH1 0x40 DUP3 ADD SWAP1 POP DUP2 DUP2 SUB PUSH1 0x0 DUP4 ADD MSTORE PUSH2 0x1F98 DUP2 DUP6 PUSH2 0x1EFA JUMP JUMPDEST SWAP1 POP PUSH2 0x1FA7 PUSH1 0x20 DUP4 ADD DUP5 PUSH2 0x11D5 JUMP JUMPDEST SWAP4 SWAP3 POP POP POP JUMP JUMPDEST PUSH32 0x596F75206E65656420746F206265207468652070726F6A65637420617574686F PUSH1 0x0 DUP3 ADD MSTORE PUSH32 0x7200000000000000000000000000000000000000000000000000000000000000 PUSH1 0x20 DUP3 ADD MSTORE POP JUMP JUMPDEST PUSH1 0x0 PUSH2 0x200A PUSH1 0x21 DUP4 PUSH2 0x108E JUMP JUMPDEST SWAP2 POP PUSH2 0x2015 DUP3 PUSH2 0x1FAE JUMP JUMPDEST PUSH1 0x40 DUP3 ADD SWAP1 POP SWAP2 SWAP1 POP JUMP JUMPDEST PUSH1 0x0 PUSH1 0x20 DUP3 ADD SWAP1 POP DUP2 DUP2 SUB PUSH1 0x0 DUP4 ADD MSTORE PUSH2 0x2039 DUP2 PUSH2 0x1FFD JUMP JUMPDEST SWAP1 POP SWAP2 SWAP1 POP JUMP JUMPDEST PUSH32 0x4E6577207374617465206D75737420626520646966666572656E740000000000 PUSH1 0x0 DUP3 ADD MSTORE POP JUMP JUMPDEST PUSH1 0x0 PUSH2 0x2076 PUSH1 0x1B DUP4 PUSH2 0x108E JUMP JUMPDEST SWAP2 POP PUSH2 0x2081 DUP3 PUSH2 0x2040 JUMP JUMPDEST PUSH1 0x20 DUP3 ADD SWAP1 POP SWAP2 SWAP1 POP JUMP JUMPDEST PUSH1 0x0 PUSH1 0x20 DUP3 ADD SWAP1 POP DUP2 DUP2 SUB PUSH1 0x0 DUP4 ADD MSTORE PUSH2 0x20A5 DUP2 PUSH2 0x2069 JUMP JUMPDEST SWAP1 POP SWAP2 SWAP1 POP JUMP JUMPDEST PUSH1 0x0 PUSH1 0x40 DUP3 ADD SWAP1 POP DUP2 DUP2 SUB PUSH1 0x0 DUP4 ADD MSTORE PUSH2 0x20C6 DUP2 DUP6 PUSH2 0x1EFA JUMP JUMPDEST SWAP1 POP PUSH2 0x20D5 PUSH1 0x20 DUP4 ADD DUP5 PUSH2 0x11BC JUMP JUMPDEST SWAP4 SWAP3 POP POP POP JUMP INVALID LOG2 PUSH5 0x6970667358 0x22 SLT KECCAK256 PUSH24 0x87315C1955BCD441BA5BAAB31DD8491389570173C16D289C 0xDE SHR 0x26 0x1E 0xD9 GAS EQ PUSH5 0x736F6C6343 STOP ADDMOD GT STOP CALLER "
		},
		"gasEstimates": {
			"creation": {
				"codeDepositCost": "1693200",
				"executionCost": "1778",
				"totalCost": "1694978"
			},
			"external": {
				"changeProjectState(uint8,uint256)": "infinite",
				"contributions(string,uint256)": "infinite",
				"createProject(string,string,string,uint256)": "infinite",
				"fundProject(uint256)": "infinite",
				"getProjectById(string)": "infinite",
				"getProjectCount()": "2445",
				"projects(uint256)": "infinite"
			}
		},
		"methodIdentifiers": {
			"changeProjectState(uint8,uint256)": "d14ce3b9",
			"contributions(string,uint256)": "7f3fcdd9",
			"createProject(string,string,string,uint256)": "1ca73896",
			"fundProject(uint256)": "6c563abe",
			"getProjectById(string)": "1016e36d",
			"getProjectCount()": "3bcff3b0",
			"projects(uint256)": "107046bd"
		}
	},
	"abi": [
		{
			"anonymous": false,
			"inputs": [
				{
					"indexed": false,
					"internalType": "string",
					"name": "projectId",
					"type": "string"
				},
				{
					"indexed": false,
					"internalType": "string",
					"name": "name",
					"type": "string"
				},
				{
					"indexed": false,
					"internalType": "string",
					"name": "description",
					"type": "string"
				},
				{
					"indexed": false,
					"internalType": "uint256",
					"name": "fundraisingGoal",
					"type": "uint256"
				}
			],
			"name": "ProjectCreated",
			"type": "event"
		},
		{
			"anonymous": false,
			"inputs": [
				{
					"indexed": false,
					"internalType": "string",
					"name": "projectId",
					"type": "string"
				},
				{
					"indexed": false,
					"internalType": "uint256",
					"name": "value",
					"type": "uint256"
				}
			],
			"name": "ProjectFunded",
			"type": "event"
		},
		{
			"anonymous": false,
			"inputs": [
				{
					"indexed": false,
					"internalType": "string",
					"name": "id",
					"type": "string"
				},
				{
					"indexed": false,
					"internalType": "enum CrowdFunding.FundraisingState",
					"name": "state",
					"type": "uint8"
				}
			],
			"name": "ProjectStateChanged",
			"type": "event"
		},
		{
			"inputs": [
				{
					"internalType": "enum CrowdFunding.FundraisingState",
					"name": "newState",
					"type": "uint8"
				},
				{
					"internalType": "uint256",
					"name": "projectIndex",
					"type": "uint256"
				}
			],
			"name": "changeProjectState",
			"outputs": [],
			"stateMutability": "nonpayable",
			"type": "function"
		},
		{
			"inputs": [
				{
					"internalType": "string",
					"name": "",
					"type": "string"
				},
				{
					"internalType": "uint256",
					"name": "",
					"type": "uint256"
				}
			],
			"name": "contributions",
			"outputs": [
				{
					"internalType": "address",
					"name": "contributor",
					"type": "address"
				},
				{
					"internalType": "uint256",
					"name": "value",
					"type": "uint256"
				}
			],
			"stateMutability": "view",
			"type": "function"
		},
		{
			"inputs": [
				{
					"internalType": "string",
					"name": "id",
					"type": "string"
				},
				{
					"internalType": "string",
					"name": "name",
					"type": "string"
				},
				{
					"internalType": "string",
					"name": "description",
					"type": "string"
				},
				{
					"internalType": "uint256",
					"name": "fundraisingGoal",
					"type": "uint256"
				}
			],
			"name": "createProject",
			"outputs": [],
			"stateMutability": "nonpayable",
			"type": "function"
		},
		{
			"inputs": [
				{
					"internalType": "uint256",
					"name": "projectIndex",
					"type": "uint256"
				}
			],
			"name": "fundProject",
			"outputs": [],
			"stateMutability": "payable",
			"type": "function"
		},
		{
			"inputs": [
				{
					"internalType": "string",
					"name": "projectId",
					"type": "string"
				}
			],
			"name": "getProjectById",
			"outputs": [
				{
					"internalType": "string",
					"name": "",
					"type": "string"
				},
				{
					"internalType": "string",
					"name": "",
					"type": "string"
				},
				{
					"internalType": "string",
					"name": "",
					"type": "string"
				},
				{
					"internalType": "address",
					"name": "",
					"type": "address"
				},
				{
					"internalType": "enum CrowdFunding.FundraisingState",
					"name": "",
					"type": "uint8"
				},
				{
					"internalType": "uint256",
					"name": "",
					"type": "uint256"
				},
				{
					"internalType": "uint256",
					"name": "",
					"type": "uint256"
				}
			],
			"stateMutability": "view",
			"type": "function"
		},
		{
			"inputs": [],
			"name": "getProjectCount",
			"outputs": [
				{
					"internalType": "uint256",
					"name": "",
					"type": "uint256"
				}
			],
			"stateMutability": "view",
			"type": "function"
		},
		{
			"inputs": [
				{
					"internalType": "uint256",
					"name": "",
					"type": "uint256"
				}
			],
			"name": "projects",
			"outputs": [
				{
					"internalType": "string",
					"name": "id",
					"type": "string"
				},
				{
					"internalType": "string",
					"name": "name",
					"type": "string"
				},
				{
					"internalType": "string",
					"name": "description",
					"type": "string"
				},
				{
					"internalType": "address payable",
					"name": "author",
					"type": "address"
				},
				{
					"internalType": "enum CrowdFunding.FundraisingState",
					"name": "state",
					"type": "uint8"
				},
				{
					"internalType": "uint256",
					"name": "funds",
					"type": "uint256"
				},
				{
					"internalType": "uint256",
					"name": "fundraisingGoal",
					"type": "uint256"
				}
			],
			"stateMutability": "view",
			"type": "function"
		}
	]
}